:020000040800F2
:1000000030860020850200081D26000817230008FE
:1000100019260008BD030008853200080000000012
:10002000000000000000000000000000A501000822
:10003000C10300080000000001020008EF2A0008C8
:100040009F0200089F0200089F0200089F0200080C
:100050009F0200089F0200089F0200089F020008FC
:100060009F0200089F0200089F0200089F020008EC
:100070009F0200089F0200089F0200089F020008DC
:100080009F0200089F0200089F0200089F020008CC
:100090009F0200089F0200089F0200089F020008BC
:1000A0009F020008912B00089F0200089F02000891
:1000B0009F02000800000000000000009F020008EE
:1000C0009F0200089F0200089F0200089F0200088C
:1000D0009F0200085532000865320008753200089A
:1000E0009F0200089F0200080000000000000000BE
:1000F0000000000000000000000000000000000000
:10010000000000009F020008000000009F0200089D
:1001100000000000000000009F0200089F0200088D
:100120009F0200089F0200089F0200089F0200082B
:100130009F02000800000000000000000000000016
:100140009F0200089F0200089F02000800000000B4
:100150009F0200089F0200089F0200089F020008FB
:100160009F0200089F0200089F0200080000000094
:100170009F0200089F02000800000000000000002D
:100180009F0200089F0200089F020008DFF810D0BD
:1001900000F002F9004800479D330008AFF30080EB
:1001A000308600202C4B1968086800F05AB880F39C
:1001B0000988BFF36F8F4FF0000080F311887047FC
:1001C0000000000008480068006880F308884FF0CD
:1001D000000080F3148862B661B6BFF34F8FBFF39F
:1001E0006F8F00DF00BF00BF08ED00E0DFF80C00FC
:1001F000016841F470010160704700BF88ED00E0C4
:10020000EFF30980BFF36F8F134B1A681EF0100FC6
:1002100008BF20ED108A20E9F04F106009B44FF0BC
:10022000500080F31188BFF34F8FBFF36F8F04F03E
:10023000F7F94FF0000080F3118809BC19680868CD
:1002400000F014B81EF0100F08BF00F014B880F3CF
:100250000988BFF36F8F704708000010EFF3058027
:10026000704730C8B0E8C04FFFF7A1BF30C8B0E852
:10027000C04FFFF7E7BFB0EC088AB0EC08CAFFF741
:10028000E6BF00000648804706480047FEE7FEE755
:10029000FEE7FEE7FEE7FEE7FEE7FEE7FEE7FEE736
:1002A0007D2B00088D0100082DE9F05F0546002038
:1002B00092469B4688460646814640241BE02846D7
:1002C00041464746224600F056F853465A46C01A61
:1002D000914110D311461846224600F03DF82D1AE0
:1002E00067EB01084F4622460120002100F034F858
:1002F00017EB00094E41201EA4F10104DFDC484643
:1003000031462A46434600F000B830BCBDE8C09FE5
:1003100040EA01039B0703D009E008C9121F08C087
:10032000042AFAD203E011F8013B00F8013B521E07
:10033000F9D27047D2B201E000F8012B491EFBD27E
:1003400070470022F6E710B513460A4604461946E0
:10035000FFF7F0FF204610BD202A04DB203A00FA08
:1003600002F1002070479140C2F1200320FA03F30C
:10037000194390407047202A04DB203A21FA02F00A
:100380000021704721FA02F3D040C2F120029140CF
:100390000843194670470000064C074D06E0E06828
:1003A00040F0010394E8070098471034AC42F6D3BC
:1003B000FFF7F0FECC5C00080C5D000800BFFEE714
:1003C000704772B600BFFEE70146002291F8250093
:1003D000022808D00420C86300BF002081F8240050
:1003E00000BF012070470868006820F00E000B680D
:1003F00018600868006820F001000B68186091F828
:10040000440000F01C03012098400B6C5860012050
:1004100081F8250000BF002081F8240000BF1046AD
:10042000E0E770B50446002594F82500022803D0C3
:100430000420E063012520E02068006820F00E0021
:10044000216808602068006820F0010021680860C9
:1004500094F8440000F01C0101208840216C4860A1
:10046000012084F8250000BF002084F8240000BF8C
:10047000A06B10B12046A16B8847284670BD0000D4
:1004800070B5044600F0F6F806462546681C10B123
:1004900004480078054400BF00F0ECF8801BA84237
:1004A000FAD370BD0800002078B503460A46002143
:1004B000C5E001268E40156805EA0604002C73D0BD
:1004C000157905F00305012D04D0157905F0030514
:1004D000022D13D198684E000325B540A8434E0065
:1004E000D568B54028439860586801258D40A843D9
:1004F0001579C5F300158D4028435860157905F02E
:100500000305032D09D0D8684E000325B540A84344
:100510004E009568B5402843D860157905F003056D
:10052000022D13D1CE0803F1200555F826004D0702
:10053000EE0E0F25B540A8434E07F60E1569B540DF
:100540002843CE0803F1200545F8260018684E0020
:100550000325B540A843157905F003054E00B540C5
:1005600028431860556805F44035002D66D000BF5B
:10057000364D2D6E45F00105344E356635462D6EEF
:1005800005F00105009500BF00BF4FEAB6358E08A3
:1005900055F826008D072E0F0F25B540A843B3F15F
:1005A000904F02D1002515E048E0294DAB4201D122
:1005B00001250FE0274DAB4201D102250AE0264D6F
:1005C000AB4201D1032505E0244DAB4201D1042506
:1005D00000E007258E07360FB5402843204D8E08D2
:1005E00045F826001F4D2868A043556805F480157E
:1005F00005B120431B4D28602D1D2868A043556878
:1006000005F4001505B12043164D2D1D2860154D2C
:100610002D1F2868A043556805F4003505B1204317
:10062000104D2D1F28602D1F2868A043556805F424
:10063000803505B120430B4D083D2860491C1568E5
:10064000CD40002D7FF435AF78BD00000010024092
:100650000004004800080048000C00480010004852
:1006600008000140080401400AB1816100E0816294
:10067000704700000148006870470000000000203B
:10068000024692F8410020282DD100BF92F8400088
:10069000012801D102207047012082F8400000BFEC
:1006A000242082F841001068006820F001001368DF
:1006B00018601068006820F4805013681860106893
:1006C00000680843136818601068006840F0010073
:1006D00013681860202082F8410000BF002082F8D3
:1006E000400000BFD7E70220D5E710B502460B4611
:1006F00092F8410020282AD100BF92F8400001283A
:1007000001D1022010BD012082F8400000BF24204A
:1007100082F841001068006820F001001468206031
:100720001068016821F4706141EA032110680160DA
:100730001068006840F0010014682060202082F8F2
:10074000410000BF002082F8400000BFDAE702202D
:10075000D8E7000010B504460CB9012010BD94F88C
:10076000410028B9002084F84000204600F05EF8DF
:10077000242084F841002068006820F001002168EE
:100780000860606820F070602168086120688068F7
:1007900020F4004021688860E068012805D1A06845
:1007A00040F400402168886004E0A06840F4044000
:1007B00021688860E068022806D12068406840F41B
:1007C00000602168486005E02068406820F400600F
:1007D00021684860206840681349084321684860E0
:1007E0002068C06820F400402168C860D4E9040192
:1007F0000843A16940EA01202168C860D4E90701E3
:100800000843216808602068006840F00100216802
:10081000086000206064202084F8410000202063EC
:1008200084F8420000BF99E70080000210B59EB036
:100830000446142119A8FFF784FD5C2102A8FFF7E4
:1008400080FD55492068884233D140200290002025
:100850000E9002A800F02CFA08B1FFF7B2FD00BF1D
:100860004E48C06C40F002004C49C8640846C06C59
:1008700000F00200019000BF00BFC02019901220BC
:100880001A9000201B9003201C9004201D9019A991
:100890004348FFF709FE00BF4048806D40F4001058
:1008A0003E4988650846806D00F40010019000BF45
:1008B00070E03C492068884234D1802002900020BA
:1008C0000F9002A800F0F4F908B1FFF77AFD00BF1D
:1008D0003248C06C40F002003049C8640846C06C21
:1008E00000F00200019000BF00BF4FF4406019907B
:1008F00012201A9000201B9003201C9004201D90B1
:1009000019A92748FFF7D0FD00BF2448806D40F4A7
:100910008000224988650846806D00F480000190BF
:1009200000BF37E020492068884233D1801502900B
:100930000020109002A800F0BBF908B1FFF741FDBC
:1009400000BF1648C06C40F004001449C864084653
:10095000C06C00F00400019000BF00BF032019909C
:1009600012201A9000201B9003201C9004201D9040
:1009700019A90E48FFF798FD00BF0848806D40F4A4
:100980000000064988650846806D00F4000001906B
:1009900000BF00BF1EB010BD005400400010024058
:1009A0000004004800580040005C00400008004877
:1009B00070B504460CB9012070BD4CF6CC402168DE
:1009C000086045F2555021680860D4E9001048607D
:1009D0002168A0688860FFF74DFE05460DE0FFF72F
:1009E00049FE401B41F60101884206D92068C068D3
:1009F00000F0070008B10320DEE72068C06800F0BF
:100A000007000028EBD120680169E068814203D02B
:100A10002168E068086103E04AF6AA2021680860BE
:100A20000020C9E7034800680349097808440149E0
:100A300008607047000000200800002010B5002466
:100A4000032000F0D3F80F2000F008F808B10124CB
:100A500001E000F051F8204610BD0000F0B587B06D
:100A60000446002500BF1F48006E40F400601D4989
:100A700008660846006E00F40060009000BF00BFEA
:100A800001A902A800F0B2FB00F0EAFB07461648F5
:100A9000B7FBF0F0461E15481549086040F2E731F3
:100AA0001348C1604660002101618160816101F0ED
:100AB0000AF8054695B90E4801F03EF805466DB9AD
:100AC000192000F03DF8102C07D2002221461920F1
:100AD00000F04AF80748046000E00125284607B006
:100AE000F0BD00000010024040420F00002C014009
:100AF000D00100200400002008B500BF0F48006EA0
:100B000040F001000D4908660846006E00F0010043
:100B1000009000BF00BF00BF0846806D40F08050CD
:100B200088650846806D00F08050009000BF00BFCF
:100B300000220F21901E00F017F808BD001002409F
:100B40000146084600280DDB00BF00BF00F01F0370
:100B500001229A4043099B0003F1E023C3F80021DE
:100B600000BF00BF00BF70472DE9F05F80460D4613
:100B70001646002702F0E4FB074639462A4633466C
:100B800001F00700C0F1070ABAF1040F02D94FF0D3
:100B9000040A01E0C0F1070AD14600F1040ABAF1E3
:100BA000070F02D24FF0000A01E0A0F1030AD44679
:100BB0004FF0010A0AFA09FAAAF1010A0AEA020A3E
:100BC0000AFA0CFA4FF0010B0BFA0CFBABF1010B1C
:100BD0000BEA030B4AEA0B042146404602F0B8FB3D
:100BE00000F000B830BCBDE8C09F000000BF00F0BE
:100BF0000702064B19684FF6FF031940044B0B43DD
:100C000043EA0221014B196000BF70470CED00E080
:100C10000000FA050246B2F5007F2AD11D4800689F
:100C200000F4C060B0F5007F32D01A48006820F4AC
:100C3000C06040F40070174B1860174800683223FA
:100C40005843164BB0FBF3F0411C00E0491E11481D
:100C5000406900F48060B0F5806F01D10029F5D1C2
:100C60000C48406900F48060B0F5806F10D103201B
:100C700070470848006800F4C060B0F5806F07D086
:100C80000448006820F4C06040F48060014B1860A4
:100C90000020EDE7007000400400001040420F000B
:100CA0000248006800F4C060704700000070004017
:100CB0002DE9F84304460025A846208800F400608A
:100CC000B0F5006F26D1606C68B1B0F5000F03D0AD
:100CD000B0F5400F0ED10CE0D548C06840F480302C
:100CE000D349C86008E00021201D01F0E9FD054658
:100CF00002E001E0012500BF00BF55B9CC488830B3
:100D0000006820F44000616C0843C949C1F88800BC
:100D100000E0A846206800F40030B0F5003F75D12F
:100D20004FF00009C248806D012121EA107078B1AE
:100D300000BFBF48806D40F08050BD4988650846BF
:100D4000806D00F08050009000BF00BF4FF001099F
:100D5000B848006840F48070B6490860FFF78AFC24
:100D6000074606E0FFF786FCC01B022801D90325D1
:100D700005E0B048006800F480700028F2D000BFA1
:100D80007DBBAB489030006800F44076CEB1A06DDA
:100D9000B04216D0A6489030006820F44076A448AF
:100DA000D0F8900040F48030A149C1F89000084686
:100DB000D0F8900020F48030C1F890000846C0F8C8
:100DC000906006F00100A8B1FFF754FC074609E067
:100DD000FFF750FCC01B41F28831884202D903253D
:100DE00007E016E092489030006800F0020000280A
:100DF000EED000BF5DB98E489030006820F440709E
:100E0000A16D08438A49C1F8900003E00CE0A846B0
:100E100000E0A846B9F1010F05D18548806D20F0AA
:100E200080508349886500BF207800F0010048B1F8
:100E30007F488830006820F00300216A08437C491D
:100E4000C1F88800207800F00200022809D1784813
:100E50008830006820F00C00616A08437449C1F8CA
:100E60008800207800F00400042809D170488830F8
:100E7000006820F03000A16A08436D49C1F888007D
:100E8000207800F02000202809D1694888300068C7
:100E900020F44060E16A08436549C1F88800208871
:100EA00000F40070B0F5007F09D161488830006817
:100EB00020F44020E16B08435D49C1F88800208898
:100EC00000F48060B0F5806F09D15948883000681F
:100ED00020F44010216C08435549C1F8880020785F
:100EE00000F04000402809D151488830006820F4C3
:100EF0004050216B08434E49C1F88800207800F02B
:100F00008000802809D14A488830006820F4404099
:100F1000616B08434649C1F88800208800F480705E
:100F2000B0F5807F09D142488830006820F4403015
:100F3000A16B08433E49C1F88800206800F40020F6
:100F4000B0F5002F1FD13A488830006820F040608B
:100F5000A16C0843364988310860A06CB0F1006F7D
:100F600006D13348C06840F480103149C8600AE0B7
:100F7000A06CB0F1806F06D10121201D01F0A0FC12
:100F8000054605B1A846206800F48020B0F5802F02
:100F90001FD127488830006820F04060E16C08438A
:100FA000234988310860E06CB0F1006F06D1204819
:100FB000C06840F480101E49C8600AE0E06CB0F1DF
:100FC000806F06D10121201D01F07AFC054605B194
:100FD000A846208800F48040B0F5804F14D1144812
:100FE0008830006820F04050216D08431049883156
:100FF0000860206DB0F1805F06D10221201D01F054
:101000005FFC054605B1A846208800F40040B0F515
:10101000004F09D106488830006820F08040616D9B
:1010200008430349C1F888004046BDE8F883000042
:1010300000100240007000402DE9F04104460D46CA
:1010400014B90120BDE8F0816348006800F0070092
:10105000A8420ED26048006820F0070028435E498D
:1010600008600846006800F00700A84201D001208F
:10107000E8E7207800F0020002280ED15749A06866
:10108000896801F0F001884207D95448806820F04F
:10109000F000A168084351498860207800F0010001
:1010A00078B36068032806D14C48006800F00070EF
:1010B000D8B90120C6E76068022806D14748006811
:1010C00000F4003088B90120BCE7606830B94348BB
:1010D000006800F0020040B90120B3E73F48006813
:1010E00000F4806008B90120ACE73C48806820F03B
:1010F00003006168084339498860FFF7BBFA064678
:1011000009E010E0FFF7B6FA801B41F2883188420F
:1011100001D9032096E73148806800F00C0061682F
:10112000B0EB810FEED1207800F0020002280ED142
:101130002A49A068896801F0F001884207D227484F
:10114000806820F0F000A1680843244988602248A4
:10115000006800F00700A8420ED91F48006820F080
:10116000070028431C4908600846006800F0070093
:10117000A84201D0012065E7207800F0040004288F
:1011800007D11648806820F4E060E16808431349FD
:101190008860207800F00800082808D10F4880688F
:1011A00020F46050216940EAC1000C49886000F0D9
:1011B00069F80A498968C1F30311094A515C01F0D1
:1011C0001F01C8400749086007480068FFF746FC50
:1011D0000746384636E70000002002400010024073
:1011E000785C000804000010040000200F22026058
:1011F0000D4A926802F0030242600B4A926802F0C4
:10120000F0028260084A926802F4E062C260064A14
:10121000926802F46052D2080261044A126802F035
:1012200007020A60704700000010024000200240E0
:1012300001480068704700000400001000B5FFF787
:10124000F7FF05498968C1F30221044A515C01F0A6
:101250001F01C84000BD000000100240885C00086B
:1012600000B5FFF7E5FF05498968C1F3C221044ACB
:10127000515C01F01F01C84000BD00000010024099
:10128000885C0008F0B500230020DFF8D4C0DCF84B
:1012900008C00CF00C01DFF8C8C0DCF80CC00CF082
:1012A000030719B10C291ED1012F1CD1DFF8B0C0E2
:1012B000DCF800C00CF0080CBCF1000F06D1DFF820
:1012C000A0C0DCF894C0CCF3032305E0DFF890C0A5
:1012D000DCF800C0CCF30313DFF888C05CF82330DF
:1012E00041B9184606E0042901D11F4802E0082947
:1012F00000D11E480C2932D1DFF864C0DCF80CC0E4
:101300000CF00304012C09D0022C02D0032C04D1D0
:1013100001E0154A04E0154A02E000BF1A4600BF8A
:1013200000BFDFF83CC0DCF80CC0CCF3021C0CF1B1
:101330000106DFF82CC0DCF80CC0CCF3062C0CFB4B
:1013400002FCBCFBF6F2DFF818C0DCF80CC0CCF3F2
:10135000416C0CF1010C4FEA4C05B2FBF5F0F0BD0D
:1013600000100240905C00080024F40000127A0093
:101370002DE9F843044614B90120BDE8F883F94883
:10138000806800F00C06F748C06800F0030720787A
:1013900000F01000102877D11EB10C2E76D1012F4D
:1013A00074D1F048006800F0020018B1A06908B9D3
:1013B0000120E2E7EB48216A006800F0080020B154
:1013C000E848006800F0F00005E0E6489430006866
:1013D00000F47060000981421FD9206A01F034FBDB
:1013E00008B10120C9E700BFDE48006840F00800EE
:1013F000DC4908600846006820F0F000216A0843D4
:10140000D849086000BF0846406820F47F40E16981
:1014100040EA0120D34948601FE000BFD14800687E
:1014200040F00800CF4908600846006820F0F0004E
:10143000216A0843CB49086000BF0846406820F491
:101440007F40E16940EA0120C64948602EB9206A20
:1014500001F0FAFA08B101208FE7FFF713FFC14945
:101460008968C1F30311C04A515C01F01F01C840F3
:10147000BE490860BE480068FFF7F0FA8046B8F140
:10148000000F4ED0404678E74BE0FFE7A06980B3FD
:10149000B448006840F00100B2490860FFF7EAF87C
:1014A000054606E0FFF7E6F8401B022801D90320B5
:1014B00063E7AC48006800F002000028F2D000BFEB
:1014C000A848006840F00800A6490860084600687F
:1014D00020F0F000216A0843A249086000BF0846D6
:1014E000406820F47F40E16940EA01209D4948605E
:1014F00017E0FFE79B48006820F001009949086069
:10150000FFF7B8F8054606E0FFF7B4F8401B0228DD
:1015100001D9032031E79348006800F00200002859
:10152000F2D1207800F0010000285CD0082E03D012
:101530000C2E0AD1032F08D18A48006800F400302D
:1015400088B3606878BB012017E700BF6068B0F51A
:10155000803F06D18348006840F4803081490860AC
:101560001AE06068B0F5A02F0BD17E48006840F407
:1015700080207C4908600846006840F4803008609C
:101580000AE07848006820F4803076490860084610
:10159000006820F48020086000BF606890B1FFF709
:1015A00069F8054607E01EE0FFF764F8401B642871
:1015B00001D90320E1E66B48006800F40030002800
:1015C000F2D010E0FFF756F8054606E0FFF752F8B4
:1015D000401B642801D90320CFE66248006800F46C
:1015E00000300028F2D1207800F00200022852D109
:1015F000042E03D00C2E14D1022F12D159480068AA
:1016000000F4806018B1E06808B90120B5E65548DB
:10161000406820F0F850217C40EA01605149486060
:1016200039E0E06800B34F48006840F480704D49ED
:101630000860FFF71FF8054606E0FFF71BF8401BA0
:10164000022801D9032098E64648006800F480602B
:101650000028F2D04348406820F0F850217C40EA4E
:1016600001604049486016E03E48006820F4807000
:101670003C490860FEF7FEFF054606E0FEF7FAFF6C
:10168000401B022801D9032077E63648006800F4A1
:1016900080600028F2D1207800F00800082836D1B8
:1016A0006069D0B12F489430006840F001002D49A6
:1016B000C1F89400FEF7DEFF054606E0FEF7DAFF0C
:1016C000401B022801D9032057E6264894300068C1
:1016D00000F002000028F1D019E0224894300068A0
:1016E00020F001001F49C1F89400FEF7C3FF054632
:1016F00006E0FEF7BFFF401B022801D903203CE6AD
:1017000018489430006800F002000028F1D12078D9
:1017100000F00400042872D14FF000091148806DD8
:1017200000F0805078B900BF0E48806D40F08050C6
:101730000C4988650846806D00F08050009000BF1D
:1017400000BF4FF001090B48006800F4807000BB37
:101750000848006840F4807006490860FEF78AFF78
:10176000054610E000100240785C000804000010FC
:101770000400002000700040FEF77CFF401B0228A0
:1017800001D90320F9E5CA48006800F480700028F8
:10179000F2D000BFA068012808D1C648006840F018
:1017A0000100C4499039C1F8900021E0A0680528E3
:1017B0000FD1C048006840F00400BE499039C1F81C
:1017C00090000846D0F8900040F00100C1F8900069
:1017D0000EE0B848006820F00100B6499039C1F821
:1017E00090000846D0F8900020F00400C1F8900066
:1017F00000BFA068A0B1FEF73DFF054609E02EE05E
:10180000FEF738FF401B41F28831884201D903209E
:10181000B3E5A848006800F002000028F0D012E00C
:10182000FEF728FF054608E0FEF724FF401B41F2C3
:101830008831884201D903209FE59E48006800F066
:1018400002000028F0D1B9F1010F07D19948903872
:10185000806D20F0805097499039886500BF2078CE
:1018600000F02000202838D1606AD8B191480830B3
:10187000006840F001008F499039C1F89800FEF7E8
:10188000F9FE054606E0FEF7F5FE401B022801D9E9
:10189000032072E587480830006800F00200002845
:1018A000F1D01AE083480830006820F00100814937
:1018B0009039C1F89800FEF7DDFE054606E0FEF718
:1018C000D9FE401B022801D9032056E5794808308B
:1018D000006800F002000028F1D1A06A00287DD045
:1018E000A06A02287BD173489038C76807F00301CB
:1018F000E06A814225D107F07001206B401EB1EBF8
:10190000001F1ED107F4FE41606BB1EB002F18D110
:1019100007F078413820005DB1EBC06F11D107F4BA
:10192000C001A08F0122C2EB5000B1EB405F08D193
:1019300007F0C0614020005DC2EB5000B1EB406F8A
:1019400066D00C2E62D05B489038006800F0806052
:1019500008B1012011E557489038006820F08070E8
:10196000544990390860FEF785FE054606E0FEF70B
:1019700081FE401B022801D90320FEE44D48903827
:10198000006800F000700028F1D1D4E90B10401E6F
:1019900041EA0011606B41EA0021A08F0122C2EBF5
:1019A000500041EA40514020005DC2EB500041EA46
:1019B00040613820005D41EAC0603E499039C96805
:1019C0003D4A114008433B499039C86008460068C9
:1019D00040F0807008600846C06801E053E03DE0D8
:1019E00040F08070C860FEF745FE054606E0FEF751
:1019F00041FE401B022801D90320BEE42D48903847
:101A0000006800F000700028F1D04FE00120B4E43D
:101A100028489038006800F00070A0BB2548903836
:101A2000006840F080702349903908600846C0681B
:101A300040F08070C860FEF71DFE054606E0FEF728
:101A400019FE401B022801D9032096E4194890385A
:101A5000006800F000700028F1D027E00C2E23D0A1
:101A600014489038006820F080701249903908605E
:101A7000FEF700FE054607E0FEF7FCFD401B0228CE
:101A800002D9032079E411E00A489038006800F098
:101A900000700028F0D107489038C0680749084016
:101AA00004499039C86001E0012066E4002064E444
:101AB00000700040901002408C809D01FCFFEEFE03
:101AC00070477047704710B504460CB9012010BD2F
:101AD00094F83D0028B9002084F83C00204600F02E
:101AE00029F8022084F83D00211D206801F058F8F3
:101AF000012084F8480000BF84F83E0001213F2007
:101B000001554020015541200155422001554320F7
:101B1000015500BF00BF012084F844004520015555
:101B2000462001554720015500BF012084F83D00A3
:101B30000020CCE770470000014691F83D000128E5
:101B400001D001207047022081F83D000868C0687C
:101B500040F001000B68D860124B0868984207D02B
:101B60000868B0F1804F03D00F4B0868984210D13D
:101B7000086880680D4B00EA0302062A0FD0B2F510
:101B8000803F0CD00868006840F001000B681860C6
:101B900005E00868006840F001000B68186000204C
:101BA000D0E70000002C0140004001400700010088
:101BB000704770B504462068C6682068056905F05E
:101BC0000200022819D106F00200022815D1401F98
:101BD00021680861012020772068806900F00300F7
:101BE00018B12046FFF7E4FF05E0204600F0ADF80D
:101BF000204600F0ABF80020207705F00400042810
:101C000019D106F00400042815D1C04321680861E9
:101C1000022020772068806900F4407018B12046C7
:101C2000FFF7C6FF05E0204600F08FF8204600F0E1
:101C30008DF80020207705F00800082819D106F05B
:101C40000800082815D1C0432168086104202077C6
:101C50002068C06900F0030018B12046FFF7A8FF14
:101C600005E0204600F071F8204600F06FF80020F3
:101C7000207705F01000102819D106F01000102868
:101C800015D1C04321680861082020772068C06909
:101C900000F4407018B12046FFF78AFF05E02046A7
:101CA00000F053F8204600F051F80020207705F0AE
:101CB000010048B106F0010030B16FF00100216869
:101CC0000861204600F044F805F08000802804D028
:101CD00005F40050B0F5005F0AD106F080008028BE
:101CE00006D16FF40250216808612046FFF7E9FE33
:101CF00005F48070B0F5807F0AD106F0800080285E
:101D000006D16FF48070216808612046FFF7D8FE85
:101D100005F04000402809D106F04000402805D1D8
:101D2000C04321680861204600F01EF805F020003D
:101D3000202809D106F02000202805D1C0432168C1
:101D400008612046FFF7BEFE70BD70477047000077
:101D500010B5044603492068884201D1FEF762FEAF
:101D600010BD0000002C014070477047704770475D
:101D70002DE9F04704462068C56920680668206898
:101D8000876840F60F0005EA0009B9F1000F0CD191
:101D900005F0200048B106F0200030B1A06E10B16F
:101DA0002046A16E8847BDE8F087B9F1000F7DD0CD
:101DB00007F0010018B9CB4830400028F7D005F0F3
:101DC000010058B106F4807040B10120216808621A
:101DD000D4F8840040F00100C4F8840005F002004B
:101DE00058B107F0010040B1022021680862D4F820
:101DF000840040F00400C4F8840005F0040058B1E9
:101E000007F0010040B1042021680862D4F8840082
:101E100040F00200C4F8840005F0080070B106F03C
:101E2000200010B907F0010040B1082021680862C5
:101E3000D4F8840040F00800C4F8840005F4006081
:101E400060B106F0806048B14FF40060216808621C
:101E5000D4F8840040F02000C4F88400D4F8840052
:101E600000284BD005F0200038B106F0200020B14A
:101E7000A06E10B12046A16E8847D4F884A02068D7
:101E8000806800F04000402802D00AF0280070B3BB
:101E9000204600F0C2FF2068806800F04000402823
:101EA00021D100BF00BF2168083100E027E051E8E0
:101EB000001F21F040002168083141E80002002A9B
:101EC000F1D100BF606F50B18748616F8863606F68
:101ED000FEF7A7FA90B1606F816B88470EE020464D
:101EE000FFF745FF0AE02046FFF741FF06E0FFE766
:101EF0002046FFF73CFF0020C4F8840053E7206E23
:101F0000012872D105F0100000286ED006F01000F4
:101F10000028FAD01020216808622068806800F04C
:101F20004000402876D1606F006840681FFA80F852
:101F3000B8F1000F5AD0B4F85800404556DDA4F867
:101F40005A80606F0068006800F02000F0BB00BF9E
:101F500000BF216851E8001F21F48070226842E828
:101F600000010029F5D100BF00BF00BF2168083182
:101F700051E8001F21F001002168083141E800020A
:101F8000002AF3D100BF00BF00BF2168083151E82B
:101F9000001F21F040002168083141E80002002ABA
:101FA000F3D100BF2020C4F880000020206600BFCD
:101FB00000BF216851E8001F21F01000226842E8AC
:101FC00000010029F5D100BF606F00E001E0FEF7DD
:101FD000FBF902206066B4F85800B4F85A20801A61
:101FE00081B22046FFF7C1FE12E055E0B4F8580078
:101FF00040450DD1606F0068006800F02000202887
:1020000006D102206066B4F858102046FFF7ADFEF6
:10201000C9E6FFE734F8580F6188401A1FFA80F8C4
:102020006088583CB8B3B8F1000F34D000BF00BF8F
:10203000216851E8001F21F49070226842E80001F5
:102040000029F5D100BF00BF00BF2168083151E869
:10205000001F21F001002168083141E80002002A38
:10206000F3D100BF2020C4F8800000202066A066C5
:1020700000BF00BF216851E8001F21F01000226856
:1020800042E800010029F5D100BF02206066414608
:102090002046FFF76AFE86E605F4801050B107F48B
:1020A000800038B14FF48010216808622046FFF7A5
:1020B0005DFE78E605F0800040B106F0800028B1B2
:1020C000E06E10B12046E16E88476CE605F04000F6
:1020D00030B106F0400018B1204600F0D1FE62E6B3
:1020E00000BF60E620010004032E000810B504467E
:1020F0000CB9012010BDA06900B100E000BFE06F85
:1021000028B9002084F87800204600F029F824201F
:10211000E0672068006820F0010021680860606ABC
:1021200010B1204600F07EFD204600F0C1FE0128DF
:1021300000D1DFE72068406820F4904021684860C3
:102140002068806820F02A00216888602068006884
:1021500040F0010021680860204600F0DFFDC9E77B
:1021600010B59EB00446142119A8FEF7EAF85C21C8
:1021700002A8FEF7E6F86249206888423DD10120B6
:10218000029000200A9002A8FEF792FD08B1FEF727
:1021900018F900BF5B48006E40F48040594908665A
:1021A0000846006E00F48040019000BF00BF00BFF1
:1021B0000846C06C40F00100C8640846C06C00F0DE
:1021C0000100019000BF00BF4FF4C06019900220D1
:1021D0001A9000201B9003201C9007201D9019A925
:1021E0004FF09040FEF760F9002205212520FEF710
:1021F000BBFC2520FEF7A4FC7FE043492068884211
:102200003CD10220029000200B9002A8FEF750FD66
:1022100008B1FEF7D6F800BF3A48806D40F40030B0
:10222000384988650846806D00F40030019000BF91
:1022300000BF00BF0846C06C40F00100C8640846FB
:10224000C06C00F00100019000BF00BF0C2019908D
:1022500002201A9000201B9003201C9007201D9044
:1022600019A94FF09040FEF71FF900220521262002
:10227000FEF77AFC2620FEF763FC3EE02349206847
:1022800088423AD10420029000200C9002A8FEF768
:102290000FFD08B1FEF795F800BF1A48806D40F4B5
:1022A0008020184988650846806D00F480200190E0
:1022B00000BF00BF00BF0846C06C40F00400C86407
:1022C0000846C06C00F00400019000BF00BF302041
:1022D000199002201A9000201B9003201C900720C8
:1022E0001D9019A90A48FEF7DFF8002205212720D2
:1022F000FEF73AFC2720FEF723FC1EB010BD0000BD
:1023000000380140001002400044004000480040F6
:1023100000080048704700BFFEE7000010B501222A
:1023200011460948FEF7A0F9012202210648FEF7EE
:102330009BF9002202210448FEF796F900220121B0
:102340000148FEF791F910BD0008004810B50122C0
:1023500011460748FEF788F9002202210448FEF7DB
:1023600083F9012202210248FEF77EF910BD000028
:102370000008004810B5012211460448FEF774F920
:10238000002201210148FEF76FF910BD0008004846
:1023900010B5044A0021044801F0ACF80349086074
:1023A00010BD00003C540008E52A000800000010A1
:1023B00008B500BF1A48C06C40F004001849C86452
:1023C0000846C06C00F00400009000BF00BF00BFD2
:1023D0000846C06C40F08000C8640846C06C00F03D
:1023E0008000009000BF00BF00BF0846C06C40F0F6
:1023F0000100C8640846C06C00F00100009000BFF6
:1024000000BF00BF0846C06C40F00200C864084628
:10241000C06C00F00200009000BF00BF08BD0000CB
:102420000010024010B51248124908601248486076
:102430000021104881600121C160002101614161DA
:102440008161C1610162FEF785F908B1FDF7B9FF4D
:1024500000210848FEF714F908B1FDF7B2FF00218A
:102460000448FEF742F908B1FDF7ABFF10BD0000CC
:10247000005400405C000010EC9C901010B5124815
:10248000124908601248486000211048816001210B
:10249000C1600021016141618161C1610162FEF79A
:1024A00059F908B1FDF78DFF00210848FEF7E8F85B
:1024B00008B1FDF786FF00210448FEF716F908B1C0
:1024C000FDF77FFF10BD000000580040B000001075
:1024D000EC9C901010B512481249086012484860F0
:1024E0000021104881600121C1600021016141612A
:1024F0008161C1610162FEF72DF908B1FDF761FF4D
:1025000000210848FEF7BCF808B1FDF75AFF00218A
:102510000448FEF7EAF808B1FDF753FF10BD0000CC
:10252000005C004004010010EC9C901010B50848BD
:10253000084908600020486040F6FF710548C16006
:102540008160FEF735FA08B1FDF73BFF10BD0000D2
:10255000003000405801001010B50D480D490860CA
:102560004FF4E130486000210A488160C160016198
:102570000C21416100218161C16101620020054996
:1025800048620846FFF7B2FD08B1FDF71AFF10BD1B
:10259000003801403800002010B50D480D49086092
:1025A0004FF4E130486000210A488160C160016158
:1025B0000C21416100218161C16101620020054956
:1025C00048620846FFF792FD08B1FDF7FAFE10BD1C
:1025D00000440040C000002010B50D480D490860BF
:1025E0004FF4E130486000210A488160C160016118
:1025F0000C21416100218161C16101620020054916
:1026000048620846FFF772FD08B1FDF7DAFE10BD1B
:10261000004800404801002000BFFEE700BFFEE781
:1026200070B5002418E004F1B000002100F03BF97F
:102630000021022000F037F90021102000F033F9CA
:10264000002505E00121002000F02DF9681CC5B22D
:10265000802DF7DB601CC4B2082CE4DB70BD0000E9
:1026600000B587B0142102A8FDF76BFE00BF4848F3
:10267000C06C40F002004649C8640846C06C00F0D7
:102680000200019000BF00BF00224FF440614148AA
:10269000FDF7EAFF4FF440600290012003900490A0
:1026A0000020059002A93B48FDF7FEFE0A20FDF739
:1026B000E7FE0021AE2000F0F6F80021022000F035
:1026C000F2F80021102000F0EEF80021402000F088
:1026D000EAF80021B02000F0E6F80021812000F0A7
:1026E000E2F80021FF2000F0DEF80021A12000F038
:1026F000DAF80021A62000F0D6F80021A82000F08A
:10270000D2F800213F2000F0CEF80021C82000F0D0
:10271000CAF80021D32000F0C6F80021084600F0D6
:10272000C2F80021D52000F0BEF80021802000F082
:10273000BAF80021D82000F0B6F80021052000F0FA
:10274000B2F80021D92000F0AEF80021F12000F00D
:10275000AAF80021DA2000F0A6F80021122000F0EB
:10276000A2F80021DB2000F09EF80021302000F0CC
:102770009AF800218D2000F096F80021142000F036
:1027800092F80021AF2000F08EF807B000BD0000E5
:10279000001002400004004870B504460D4605F1E3
:1027A000B000002100F07FF8A11CC1F3031141F03B
:1027B0001000002100F077F8A11C01F00F000021AB
:1027C00000F071F870BD00002DE9F04707460E4695
:1027D0009046994600250024A8F12000C5B27F2F1D
:1027E00002DD0027B01CC6B2B9F1100F24D131466A
:1027F0003846FFF7D1FF002408E004EB0511194A21
:10280000505C012100F04FF8601CC4B2082CF4DBCE
:10281000701CC1B23846FFF7BFFF002409E004EB8B
:10282000051108310F4A505C012100F03CF8601C92
:10283000C4B2082CF3DB12E031463846FFF7ACFF98
:1028400000240AE005EB4501074A02EB4101085D5F
:10285000012100F028F8601CC4B2062CF2DBBDE8B0
:10286000F087000088560008605400082DE9F04108
:1028700004460F461546984600260FE0AA5D4346DB
:1028800039462046FFF7A0FF04F10800C4B2782CB7
:1028900002DD0024B81CC7B2701CC6B2A85D0028B7
:1028A000ECD1BDE8F08170B504460D461DB1E0B233
:1028B00000F030FD02E0E0B200F016FD70BD000057
:1028C0002DE9F04104460F4600255B48C06800F042
:1028D000030090B15848C06800F0030021688842A6
:1028E00009D1206838B15448C068C0F30210401CB8
:1028F0006168884233D0012531E02068012804D086
:10290000022809D003281AD10DE04B48006800F0D6
:10291000020000B9012514E04748006800F4806017
:1029200000B901250DE04448006800F4003028B9E2
:102930004148006800F4802000B9012501E001252C
:1029400000BF00BF5DB9D4E90010401E41EA00108D
:102950003949C96821F0730108433749C860002D1F
:1029600067D13548006820F0806033490860FDF782
:1029700081FE064606E0FDF77DFE801B022801D998
:10298000032505E02C48006800F000600028F2D123
:1029900000BFC5BB67B9A0680002217B40EAC160E7
:1029A00025490969254A114008432349086120E067
:1029B000012F0FD1A0680002218A0122C2EB510130
:1029C00040EA41501C4909691D4A114008431A490F
:1029D00008610EE0A0680002217D0122C2EB5101D6
:1029E00040EA416014490969164A114008431249F6
:1029F00008611148006840F080600F490860FDF7E9
:102A000039FE064607E014E0FDF734FE801B02287D
:102A100001D9032505E00848006800F0006000289F
:102A2000F2D000BF2DB904480069A16908430249EA
:102A300008612846BDE8F08100100240FF80FF07D2
:102A4000FF809FFFFF80FFF9F8B50446002623486A
:102A5000806D00F0805018B1FEF722F9054616E0AF
:102A600000BF1E48806D40F080501C4988650846B4
:102A7000806D00F08050009000BF00BFFEF710F99D
:102A800005461648806D20F0805014498865B5F5DC
:102A9000007F07D1802C10D9A02C01D902260CE090
:102AA00001260AE0802C01D9032606E0802C01D102
:102AB000022602E0702C00D101260948006820F0AF
:102AC00007003043064908600846006800F0070028
:102AD000B04201D00120F8BD0020FCE70010024008
:102AE0000020024000BF012000F0AEFCFBE710B563
:102AF0004FF0E020006902F04BFA012801D001F00C
:102B00008BFE10BD00B597B0442106A8FDF719FC57
:102B1000142101A8FDF715FC4FF40070FEF77AF8B8
:102B200008B1FDF74EFC092006904FF48030079065
:102B300001200B900220109003211191012112918C
:102B4000142113910721149102211591169106A8C1
:102B5000FEF70EFC08B1FDF734FC0F2001900320B6
:102B600002900020039004900590042101A8FEF734
:102B700063FA08B1FDF725FC17B000BD03480068F3
:102B800040F47000014908607047000088ED00E0E3
:102B900010B50248FFF70DF810BD0000D00100206D
:102BA00010B502681C4B984202D0B0F1804F03D19F
:102BB00022F070024B681A43174B984208D0B0F1CC
:102BC000804F05D0154B984202D0154B984203D147
:102BD00022F44072CB681A4322F080034C6943EA26
:102BE000040202608B68C3620B6883620A4B9842DE
:102BF00005D00A4B984202D0094B984201D10B698B
:102C0000036301234361036903F001031BB10369FB
:102C100023F00103036110BD002C0140004001407E
:102C20000044014090F8241001F00801082907D160
:102C30000168496821F40041426B11430268516008
:102C400090F8241001F0010139B10168496821F4BC
:102C50000031826A11430268516090F8241001F03B
:102C60000201022907D10168496821F48031C26A52
:102C700011430268516090F8241001F00401042906
:102C800007D10168496821F48021026B1143026871
:102C9000516090F8241001F01001102907D101684B
:102CA000896821F48051826B11430268916090F829
:102CB000241001F02001202907D10168896821F43E
:102CC0000051C26B11430268916090F8241001F02A
:102CD0004001402913D10168496821F48011026C38
:102CE000114302685160016CB1F5801F07D1016882
:102CF000496821F4C001426C11430268516090F8A8
:102D0000241001F08001802907D10168496821F46D
:102D10000021826C114302685160704738B5044647
:102D20000020C4F88400FDF7A5FC05462068006873
:102D300000F00800082820D16FF07E402B460022CA
:102D40004FF400110090204600F02DFAA8B100BF0A
:102D500000BF216851E8001F21F08000226842E88E
:102D600000010029F5D100BF2020E06700BF00204E
:102D700084F8780000BF032038BD2068006800F0A8
:102D80000400042830D16FF07E402B4600224FF41F
:102D900080010090204600F006FA28B300BF00BF73
:102DA000216851E8001F21F49070226842E8000178
:102DB0000029F5D100BF00BF00BF2168083151E8EC
:102DC000001F21F001002168083141E80002002ABB
:102DD000F3D100BF2020C4F8800000BF002084F899
:102DE000780000BF0320C7E72020E067C4F8800018
:102DF00000202066606600BF84F8780000BF00BF36
:102E0000BAE770B50546AC6A0020A4F85A00A4F8E9
:102E100052002046FEF7ABFF70BD00BF00BF026846
:102E200052E8002F22F49071036843E80012002A50
:102E3000F5D100BF00BF00BF0268083252E8002F82
:102E400022F001010268083242E80013002BF3D19E
:102E500000BF016E01290CD100BF00BF026852E81B
:102E6000002F22F01001036843E80012002AF5D178
:102E700000BF2021C0F880100021016681667047E4
:102E800010B5044600BF00BF216851E8001F21F0C3
:102E90004000226842E800010029F5D100BF20204F
:102EA000E0670020E0662046FFF734FA10BD00001E
:102EB0002DE9F84F044600200090B249206888426E
:102EC00000D100E000BF2169A068084361690843A0
:102ED000E16940EA010A20680068AB49084040EA1D
:102EE0000A00216808602068406820F44050E168CA
:102EF000084321684860D4F818A0A2492068884295
:102F000002D0206A40EA0A0A2068806820F4306013
:102F100040EA0A002168886000BF9C492068884216
:102F200016D19B48006800F0030030B1012808D09A
:102F3000022804D0032808D105E0012507E0022576
:102F400005E0042503E0082501E0102500BF54E05A
:102F500090492068884216D18D48006800F00C0026
:102F600030B1042808D0082804D00C2808D105E086
:102F7000002507E0022505E0042503E0082501E01F
:102F8000102500BF39E084492068884216D1804866
:102F9000006800F0300030B1102808D0202804D09C
:102FA000302808D105E0002507E0022505E00425CA
:102FB00003E0082501E0102500BF1EE071492068EC
:102FC000884219D17248006800F4406048B1B0F5F9
:102FD000806F0AD0B0F5006F05D0B0F5406F08D112
:102FE00005E0002507E0022505E0042503E00825AB
:102FF00001E0102500BF00E0102500BF61492068F6
:10300000884245D135B1022D08D0042D08D0082DB5
:103010000DD109E0FEF712F906460CE05F4E0AE01A
:10302000FEF730F9064606E04FF4004603E00026BE
:103030000120009000BF00BF002E0AD0606800EBA6
:103040004000B04203D860680003B04202D20120C1
:10305000009090E04FF48070A6FB0030D4F804C0DC
:103060004FEA5C015F1840F10001624600233846D8
:10307000FDF71AF98146B9F5407F06D3B9F5801FEF
:1030800003D22068C0F80C9075E00120009072E037
:10309000E069B0F5004F3AD1092D17D2DFE805F00D
:1030A00005090D160F1616161300FEF7C7F806468B
:1030B00010E0FEF7D5F806460CE0384E0AE0FEF7C1
:1030C000E1F8064606E04FF4004603E00026012042
:1030D000009000BF00BF8EB37000616800EB51002C
:1030E000B0FBF1F9B9F1100F0ED3B9F5803F0BD257
:1030F0004FF6F07009EA000BC9F342004BEA000BEF
:103100002068C0F80CB036E00120009033E0092DB3
:1031100018D2DFE805F005090D170F17171714006F
:10312000FEF78CF8064611E0FEF79AF806460DE029
:103130001A4E0BE0FEF7A6F8064607E01BE04FF438
:10314000004603E000260120009000BF00BF96B1BA
:10315000606806EB50006168B0FBF1F9B9F1100F3F
:1031600007D3B9F5803F04D21FFA89F02168C860FF
:1031700001E0012000900020A066E066009800F0C9
:103180000FB8000000800040F369FFEF00380140F5
:103190008810024000440040004800400024F40031
:1031A00018BCBDE8E08F2DE9F04104460D461746F6
:1031B0009846069E41E0701C00283ED0FDF75AFA62
:1031C000A0EB0800B04200D816B90320BDE8F0819A
:1031D0002068006800F0040070B3802D2DD0402DD1
:1031E0002BD02068C069C0F3C00078B108202168E6
:1031F00008622046FFF711FE0820C4F8840000BFD3
:10320000002084F8780000BF0120DFE72068C06953
:10321000C0F3C02080B14FF40060216808622046EE
:10322000FFF7FBFD2020C4F8840000BF002084F8D5
:10323000780000BF0320C9E7FFE72068C069284085
:10324000A84201D1012000E00020B842B3D0002004
:10325000BCE7000010B50248FEF78AFD10BD000073
:103260003800002010B50248FEF782FD10BD0000B6
:10327000C000002010B50248FEF77AFD10BD000026
:103280004801002000BFFEE72DE9F04105462C462D
:10329000002201211348FDF7E7F900261DE027462B
:1032A00007F08007802F05D1012202210D48FDF78C
:1032B000DBF904E0002202210A48FDF7D5F9600697
:1032C000040E012211460748FDF7CEF90022012124
:1032D0000448FDF7C9F9701CC6B2082EDFDBBDE853
:1032E000F08100000008004810B50446FFF716F80A
:1032F0007820FFF7C9FFFFF73DF80020FFF7C4FF74
:10330000FFF738F82046FFF7BFFFFFF733F8FFF766
:103310001DF810BD10B50446FFF700F87820FFF740
:10332000B3FFFFF727F84020FFF7AEFFFFF722F8C3
:103330002046FFF7A9FFFFF71DF8FFF707F810BDBC
:1033400002480068C0F30220704700000CED00E066
:1033500010B5002804DB0A07130E054A135406E0D3
:103360000A07140E034A00F00F031B1FD45410BDAC
:1033700000E400E018ED00E0EFF30580704702E0A4
:1033800008C8121F08C1002AFAD1704770470020F0
:1033900001E001C1121F002AFBD17047FDF74EFB6F
:1033A000FFF7B0FBFFF704F8FFF73CF8FFF766F80C
:1033B000FFF790F8FFF7BAF8FFF7CEF8FFF7ECF851
:1033C000FFF70AF9FFF74CF9FFF72AF900F04CF87C
:1033D000FEF7DEFF00F05EF833E0102319A20421AF
:1033E0000820FFF743FA7B24642094FBF0F0303090
:1033F000C5B210232A4606210820FFF7E5F964200C
:1034000094FBF0F100FB11400A2190FBF1F0303009
:10341000C5B210232A4606211846FFF7D5F96420C5
:1034200094FBF0F100FB11400A2190FBF1F201FB4B
:1034300012003030C5B210232A4606211820FFF7AB
:10344000C3F9CAE74153440070B50546FFF794FF3E
:1034500010B16FF0050404E0002415B1284600F017
:10346000FFFF204670BD000010B5FFF785FF10B1CB
:103470006FF0050409E00648006820B901200449FE
:103480000860002401E04FF0FF34204610BD00002A
:103490005800001070B5FFF76FFF10B16FF0050412
:1034A0001FE011480068012819D100BF801F0021CA
:1034B000002804DB0A07130E0C4A135406E00A071F
:1034C000150E0B4A00F00F031B1FD55400BF00BFA1
:1034D00002200549086001F03FF8002401E04FF0A8
:1034E000FF34204670BD00005800001000E400E0EA
:1034F00018ED00E02DE9FF4780468946144600207C
:103500000390FFF739FF00284ED1B8F1000F4BD0E0
:10351000802618258246471E44B3206808B1D4F897
:1035200000A0A06900B1A5692DB1382D03D820797C
:1035300000F0010018B1002004B0BDE8F087606918
:1035400008B160698608A06840B1E0685C2805D3CE
:10355000206918B1606908B1012708E0A06830B996
:10356000E06820B9206910B9002700E00027012F8A
:103570000CD12169A0684B463246CDE9005102903A
:103580005146404601F0A3FC03900DE067B903A843
:10359000B2B24B465146CDE90050404601F062FCC4
:1035A000012801D0002003900398C5E72DE9F041E0
:1035B00005460E461648076816480068001D00F0CC
:1035C000C7FD681C38B936B112480168091D124898
:1035D00000F014FE1AE07C190E4800684460BC42FA
:1035E00007D20C480168091D0C48006800F0ECFD8A
:1035F0000CE008480168091D0948006800F0E4FD76
:1036000008480068844201D206480460BDE8F081A1
:103610001C00001008000010180600101000001018
:103620000C0000103800001010B5044600F0F2FD48
:1036300024480068401C234908602348006840B9BA
:10364000214804600846006801280DD100F000FA06
:103650000AE01E48006838B91B480068C06AE16A81
:10366000884201D81848046019480068401C18496D
:1036700008600846006860641649E06A0968884284
:1036800002D91449E06A0860E16A01EB8101124A3B
:1036900002EB8100211D00F0B1FD00F0E5FD0B48BB
:1036A000006868B108480068C06AE16A884207D2C9
:1036B0004FF0805009490860BFF34F8FBFF36F8F01
:1036C00010BD0000180000100800001024000010B9
:1036D00034000010200000106801001004ED00E02C
:1036E00008B500F097FD12480068E8B9114800F0ED
:1036F0005BFD114800F058FD0E48104908600E4867
:103700000F49086000200F4B0F4A102100900A203B
:1037100001F09CF8064908600846006820B10BA13A
:103720000348006800F060FE00F09EFD08BD000048
:103730004C0000105C0200207002002044000010C9
:103740004800001084020020D4020020546D725101
:103750000000000010B516E000F05CFD0C48C068E9
:10376000C468201D00F0F4FC0A480068401E0949A6
:10377000086009480068401E0749086000F074FDB1
:10378000204600F05FF8044800680028E4D110BD2E
:1037900004060010180000101400001070B5044654
:1037A0000D46206C70B1216CE0680144E160D4E901
:1037B0000210884201D32168E1602846226CE1684A
:1037C000FCF7A6FD70BD2DE9F04104460F461546F5
:1037D0004FF00008A66B206C48B9206800282CD157
:1037E000A06801F08DFC80460020A06025E07DB936
:1037F0003946226C6068FCF78BFD216C60680844D8
:103800006060D4E90101884217D32068606014E049
:103810003946226CE068FCF77BFD216CE068411AB8
:10382000E1602168E068884203D2216CA068411AF7
:10383000E160022D01D106B1761E701CA0634046E6
:10384000BDE8F08110B5044694F8590030B9206BFA
:1038500000F028FD204600F025FD1AE094F85900FC
:10386000012803D1204600F01DFD12E094F8590014
:10387000022801D1012000E0002050B900BF5020F3
:1038800080F31188BFF34F8FBFF36F8F00BF00BF6E
:10389000FEE710BD0146084A126812680AB9012203
:1038A00000E000220A600A6822B9034A1268D2685E
:1038B000106800E0002070474400001030B54FF45D
:1038C0007053174800F007042CB1C01D20F007000A
:1038D000134C041B1B1B0246124C22600024114D8A
:1038E0006C60D018083820F007000F4C20600024CE
:1038F0000D4D2D686C600C4D2D682C601146441ADE
:103900004C60094C24680C60084D4C682C60084DD4
:103910004C682C604FF00044064D2C6030BD000018
:103920002C0A00200C000020140000201C000020A5
:10393000180000202800002000BFFFF70BFF0648FA
:1039400000680128F9D94FF0805004490860BFF39E
:103950004F8FBFF36F8FF0E76801001004ED00E0B8
:103960002DE9F04106460D4617469846069C0DB9CE
:10397000246000E02760E66325640121204600F012
:10398000D5FF84F84C80BDE8F0812DE9F05F8246D8
:103990000E4690469B460A9F0C9C4FEA8801A52242
:1039A000206BFCF7C7FCA8F10100216B01EB80093B
:1039B00029F0070909F0070008B9012000E00020FC
:1039C00050B900BF502080F31188BFF34F8FBFF371
:1039D0006F8F00BF00BFFEE786B1002507E0715D75
:1039E00004F134004155705D00B902E06D1C102DEA
:1039F000F5D300BF00214320015502E0002084F8E8
:103A00003400382F00D33727E762E76400202065B1
:103A1000201D00F0D6FB04F1180000F0D2FB246159
:103A2000C7F13800A06164620020606584F8580026
:103A30005A465146484600F075FB20600B9808B185
:103A40000B98046000F000B830BCBDE8C09F0000D7
:103A500010B5002407E004EB84010F4A02EB81005B
:103A600000F0A2FB641C382CF5D30C4800F09CFB42
:103A70000B4800F099FB0B4800F096FB0A4800F059
:103A800093FB0A4800F090FB044809490860044889
:103A90000849086010BD000068010010C80500104A
:103AA000DC050010F00500100406001018060010D8
:103AB0000C0000101000001010B50146164800E080
:103AC000006803688B42FBD30246436813448B4271
:103AD00004D143684C682344436001460A464B685E
:103AE00013440468A34211D10C4C03682468A34218
:103AF00008D04B680468646823444B6003681B6803
:103B00000B6005E0054B1B680B6001E003680B6070
:103B1000884200D0016010BD0C000020140000207D
:103B20002DE9F04104460D4616461F464FF00008A9
:103B300065602461B5420CD8F01BA169884202D3AC
:103B40004FF0010811E0211D0948006800F03CFB1E
:103B50000BE0BE4204D2BD4202D34FF0010804E0A4
:103B6000211D0448006800F02FFB4046BDE8F081AD
:103B7000480000104400001070B5054600F04AFBF4
:103B8000A86B08B9012400E0002400F06DFB20467A
:103B900070BD70B5054600F03DFBA86BE96B88422F
:103BA00001D1012400E0002400F05EFB204670BD3E
:103BB000F8B505460F461A480068C068C468201D5D
:103BC00000F0C6FA94F8280000F00400E8B1A069FB
:103BD00041192B463A462046FFF7A2FFD8B10020F4
:103BE00003462A4601460090204601F0E5FB0646C2
:103BF00056B900BF502080F31188BFF34F8FBFF339
:103C00006F8F00BF00BFFEE705E094F8280020F0AA
:103C1000010084F828002046216A8847F8BD00008A
:103C200044000010F0B587B0A0E00398002811DA36
:103C300004AE56B900BF502080F31188BFF34F8FF8
:103C4000BFF36F8F00BF00BFFEE7D6E90020B16869
:103C5000904700BF03980028E6DB059C606908B91F
:103C6000012000E0002010B9201D00F071FA02A828
:103C700000F0DEF8054603980A2875D2DFE800F068
:103C800009050739416306083A4200BF00BF00BF7B
:103C900000BF94F8280040F0010084F82800049840
:103CA000A269811803462A462046FFF739FFF8B17A
:103CB0002046216A884794F8280000F00400B8B133
:103CC000002000900498A16942180023194620465C
:103CD00001F072FB074657B900BF502080F31188EE
:103CE000BFF34F8FBFF36F8F00BF00BFFEE700BF72
:103CF0003BE000BF94F8280020F0010084F8280081
:103D000033E000BF94F8280040F0010084F8280058
:103D10000498A061A06908B1012000E0002050B91A
:103D200000BF502080F31188BFF34F8FBFF36F8F18
:103D300000BF00BFFEE7A06941192B462A46204676
:103D4000FFF7EEFE11E094F8280000F0020018B929
:103D5000204600F0A7FA05E094F8280020F00100C2
:103D600084F8280001E0FFE700BF00BF002203A99C
:103D70000448006800F07CFF00287FF456AF07B0CD
:103D8000F0BD00004C000010F8B505460C4600F0F0
:103D90003FFC684600F04CF80646009820BB44B94A
:103DA000B54206D801F04AFA31462846FFF700FF2F
:103DB0001CE03CB10E480068006808B9012000E032
:103DC00000200446A91B22460A48006800F022FB96
:103DD00001F034FA50B94FF0805007490860BFF342
:103DE0004F8FBFF36F8F01E001F028FAF8BD00009C
:103DF000480000104C00001004ED00E00A4909687A
:103E0000096809B9012100E0002121B14FF0FF311B
:103E1000064A116006E004490968C968C868034A8F
:103E200041681160704700000C000010380000105D
:103E300070B5044601F0BCF80546074800688542A5
:103E400004D200F00BF80120206001E00020206087
:103E500001480560284670BD540000102DE9F84364
:103E600034E025480068C068056823480068C068D9
:103E7000C468201D00F06CF92046216A884794F838
:103E8000280000F0040008B3A0694619AE4207D923
:103E900066602461211D1848006800F095F915E05E
:103EA000002003462A4601460090204601F084FA8D
:103EB000074657B900BF502080F31188BFF34F8FDA
:103EC000BFF36F8F00BF00BFFEE700BF0A48006866
:103ED000006808B9012000E000200028C1D0064891
:103EE000D0F8008005480068034908600348C0F81E
:103EF0000080BDE8F8830000440000104800001076
:103F00000E480068401C08B9012000E0002050B9AC
:103F100000BF502080F31188BFF34F8FBFF36F8F26
:103F200000BF00BFFEE700BF502080F31188BFF341
:103F30004F8FBFF36F8F00BF00BFFEE72C00002044
:103F400008B500BF6846FFF7A5FC04462046009967
:103F5000FFF71AFFFFF766FEF4E770B5044600F0BE
:103F600059F994F9455010E0606A08B9012000E061
:103F7000002038B904F1240001F014F918B100F060
:103F8000A9FA00E003E0681E45B2002DECDC00BF9A
:103F9000FF2084F8450000F067F900F03BF994F940
:103FA000445010E0206908B9012000E0002048B921
:103FB00004F1100001F0F6F808B100F08BFA681E69
:103FC00045B200E001E0002DECDC00BFFF2084F8EA
:103FD000440000F049F970BD2DE9F04104464FF06E
:103FE000000800F015FB4948006808B9FFF766FCB7
:103FF000474800682040002870D1D4B1083404F04C
:104000000700B0B104F00700C0F10800044404F058
:10401000070008B9012000E0002050B900BF50207F
:1040200080F31188BFF34F8FBFF36F8F00BF00BFC6
:10403000FEE7002C52D03748006884424ED8364EF6
:104040003046056801E02E462D686868A04202D21D
:1040500028680028F7D12D48006885423ED0306896
:1040600000F10808286830606868001B102819D91A
:104070002F1907F0070008B9012000E0002050B90F
:1040800000BF502080F31188BFF34F8FBFF36F8FB5
:1040900000BF00BFFEE76868001B78606C603846B0
:1040A000FFF70AFD1B4968680968081A1949086082
:1040B0000846006819490968884203D21548006813
:1040C000164908601249686809680843686000205A
:1040D000286013480068401C1149086001F0AEF8E0
:1040E00008F0070008B9012000E0002050B900BF27
:1040F000502080F31188BFF34F8FBFF36F8F00BF45
:1041000000BFFEE74046BDE8F0810000140000203B
:1041100028000020180000200C0000201C000020B7
:1041200020000020001F4FF080730360001F21F06B
:1041300001030360001F054B036014380260001F79
:104140006FF002030360203870470000013F000851
:1041500001460A69D1E901309860D1E9010358604C
:104160005068884201D1886850600020086110685A
:10417000401E106010687047034B0360034B0B60D8
:10418000802313607047000074030020D0030020D8
:10419000034B0360034B0B604FF480731360704755
:1041A000D00500202C06002000F1080141604FF0EE
:1041B000FF31816000F10801C160016100210160EF
:1041C000704700210161704710B502460B685C1C06
:1041D0000CB9106907E002F1080000E0406844688B
:1041E00024689C42FAD944684C604C68A16088609D
:1041F00041600A611468641C146010BD42684A6022
:1042000093688B60936859609160086103685B1CD8
:104210000360704700BF502080F31188BFF34F8FB9
:10422000BFF36F8F00BF0E480068401C0C49086048
:1042300008460068012812D10A480068C0B208B9CF
:10424000012000E0002050B900BF502080F3118809
:10425000BFF34F8FBFF36F8F00BF00BFFEE7704704
:104260002C00002004ED00E00D48006850B900BFAC
:10427000502080F31188BFF34F8FBFF36F8F00BFC3
:1042800000BFFEE706480068401E05490860084672
:10429000006820B9002080F3118800BF00BF70477C
:1042A0002C00002070B506463546002E44D0083D4F
:1042B0002C46224960680968084008B1012000E0E6
:1042C000002050B900BF502080F31188BFF34F8FFA
:1042D000BFF36F8F00BF00BFFEE7206808B9012061
:1042E00000E0002050B900BF502080F31188BFF3D8
:1042F0004F8FBFF36F8F00BF00BFFEE70F496068AD
:1043000009680840C0B12068B0B90C496068096804
:104310008843606000F07CF90949606809680844D6
:10432000074908602046FFF7C7FB06480068401CA5
:104330000449086000F082FF70BD000028000020E2
:10434000180000202400002000204FF0E021086128
:104350008861064800684FF47A71B0FBF1F0401EA6
:104360004FF0E02148610720086170470400001009
:1043700070B5FBF773FF0446102C16D304F1E02050
:1043800090F8F05315480078854201DB012000E0E9
:10439000002050B900BF502080F31188BFF34F8F29
:1043A000BFF36F8F00BF00BFFEE70D48006800F449
:1043B000E0600C490968884201D8012000E0002033
:1043C00050B900BF502080F31188BFF34F8FBFF367
:1043D0006F8F00BF00BFFEE770BD000030000020FF
:1043E0000CED00E034000020024600200BE0084BFA
:1043F00053F8303033B9064B43F8301003EBC003A9
:104400005A6002E0401C0828F1D300BF704700004A
:104410001C0200202DE9F04105460E4617462C46A9
:10442000FFF7F8FE94F94400401C10B9002084F80E
:10443000440094F94500401C10B9002084F8450060
:10444000FFF712FFA06B28B93A46314604F1240069
:1044500000F062F82046FFF780FDBDE8F081000023
:1044600070B504460025D4B11248006808B901208F
:1044700000E0002050B900BF502080F31188BFF346
:104480004F8FBFF36F8F00BF00BFFEE700F0C0F893
:1044900000212046FFF78AF800F0D0FE05463DB91E
:1044A0004FF0805004490860BFF34F8FBFF36F8F08
:1044B00070BD00004000001004ED00E003490968F1
:1044C0000160034909684160704700003000001036
:1044D0001C00001001200149086070472C000010EA
:1044E00070B504460D4654B900BF502080F31188C2
:1044F000BFF34F8FBFF36F8F00BF00BFFEE70548CC
:10450000016818312046FFF75FFE01212846FFF7BA
:104510004DF870BD0800001070B505460E461446F3
:1045200055B900BF502080F31188BFF34F8FBFF300
:104530006F8F00BF00BFFEE70648016818312846AC
:10454000FFF75CFE0CB14FF0FF3621463046FFF717
:104550002DF870BD0800001010B586B00020059041
:10456000049003AA04A905A8FFF706FE0022DDE9CE
:1045700004101346CDE9002102901EA11F48039AA2
:1045800000F0A5FC1E4908600846006808B1012437
:1045900000E00024012C02D100F0D2FE0446012CE0
:1045A00015D100BF502080F31188BFF34F8FBFF3A8
:1045B0006F8F00BF4FF0FF30124908600120124991
:1045C000086000201149086000F072F810E0601CDB
:1045D00008B1012000E0002050B900BF502080F356
:1045E0001188BFF34F8FBFF36F8F00BF00BFFEE78F
:1045F00006B010BD49444C450000000039390008A0
:104600003C00001038000010240000101C000010B6
:1046100002480068401C01490860704740000010D3
:104620001E48006818B101201D49086034E00020D0
:104630001B4908601B4801680CE051B900BF5020BD
:1046400080F31188BFF34F8FBFF36F8F00BF00BFA0
:10465000FEE7491E01EB8100134A52F8200008B919
:10466000012000E000200028E7D101EB81020E4B81
:1046700003EB820042685268426000F1080243681E
:10468000934202D14268526842604268D268074B46
:104690001A600448016000BF70470000400000102D
:1046A0002C0000102000001068010010080000100D
:1046B0001CB5524800685249884201D0012000E0F0
:1046C000002050B900BF502080F31188BFF34F8FF6
:1046D000BFF36F8F00BF00BFFEE74848006848493E
:1046E000491E884201D0012000E0002050B900BFDF
:1046F000502080F31188BFF34F8FBFF36F8F00BF3F
:1047000000BFFEE73F49084600780190FF200A46B7
:1047100010700846007800909DF8000000F0F0004E
:104720009DF80020904201D1012000E0002050B906
:1047300000BF502080F31188BFF34F8FBFF36F8FFE
:1047400000BF00BFFEE79DF8000000F050002E4AB9
:10475000107007202D4A106009E02C480068401EA8
:104760002A4A10609DF800004006000E00909DF857
:10477000000000F080008028EFD024480068C0F1DD
:104780000700042801D1012000E0002050B900BF3B
:10479000502080F31188BFF34F8FBFF36F8F00BF9E
:1047A00000BFFEE7194800680002184A1060104672
:1047B000008800F4E0601060124A019810700F4801
:1047C0002030006840F470000C4920310860084631
:1047D000006840F070400860FFF7B6FD00200C490B
:1047E0000860FBF703FD0B48006840F040400949B2
:1047F0000860FBF7E7FC00201CBD000000ED00E0B6
:1048000071C20F4100E400E03000002034000020BD
:104810002C00002034EF00E010B500BF502080F3E2
:104820001188BFF34F8FBFF36F8F00BF00F0C6FB3F
:1048300018B14FF080500449086000BF002080F399
:10484000118800BF10BD000004ED00E02DE9F84321
:1048500080460E4617461D46DDF82090B8F1000F41
:1048600001D0012000E0002050B900BF502080F3AB
:104870001188BFF34F8FBFF36F8F00BF00BFFEE7FC
:104880000DB1012000E0002050B900BF502080F39E
:104890001188BFF34F8FBFF36F8F00BF00BFFEE7DC
:1048A00007B10EB1012000E0002050B900BF502038
:1048B00080F31188BFF34F8FBFF36F8F00BF00BF2E
:1048C000FEE707B90EB9012000E0002050B900BF93
:1048D000502080F31188BFF34F8FBFF36F8F00BF5D
:1048E00000BFFEE7502000900098502801D1012021
:1048F00000E0002050B900BF502080F31188BFF3C2
:104900004F8FBFF36F8F00BF00BFFEE700BF2C4685
:104910004CB1012084F846004B463A4631464046A9
:104920000094FFF71DF82046BDE8F88370B50546F2
:104930000E462C4654B900BF502080F31188BFF3B7
:104940004F8FBFF36F8F00BF00BFFEE7FFF762FC22
:10495000D4E90F12206801FB0200A0600020A063D0
:1049600020686060E06B401E226C216800FB021131
:10497000E160FF2084F8440084F845009EB9206976
:1049800008B9012000E00020A8B904F1100000F0EF
:1049900009FC80B14FF0805009490860BFF34F8F88
:1049A000BFF36F8F07E004F11000FFF7FDFB04F188
:1049B0002400FFF7F9FBFFF757FC012070BD000052
:1049C00004ED00E02DE9FF4383B0064688461D460E
:1049D0004FF00009344654B900BF502080F31188CD
:1049E000BFF34F8FBFF36F8F00BF00BFFEE7B8F17B
:1049F000000F01D1206C08B9012000E0002050B95F
:104A000000BF502080F31188BFF34F8FBFF36F8F2B
:104A100000BF00BFFEE7022D02D1E06B012801D1EB
:104A2000012000E0002050B900BF502080F3118821
:104A3000BFF34F8FBFF36F8F00BF00BFFEE700F0E3
:104A4000A7FA08B9059808B9012000E0002050B97C
:104A500000BF502080F31188BFF34F8FBFF36F8FDB
:104A600000BF00BFFEE700BFFFF7D4FBA06BE16B08
:104A7000884201D3022D28D12A4641462046FEF71E
:104A8000A2FE0746606A08B9012000E0002068B96C
:104A900004F1240000F086FB88B14FF080503249C9
:104AA0000860BFF34F8FBFF36F8F08E03FB14FF047
:104AB00080502D490860BFF34F8FBFF36F8FFFF712
:104AC000D3FB012007B0BDE8F083059818B9FFF7C4
:104AD000CBFB0020F6E7B9F1000F04D101A8FFF7E6
:104AE000EDFC4FF00109FFF7BFFBFFF791FDFFF76A
:104AF00091FB94F94400401C10B9002084F8440054
:104B000094F94500401C10B9002084F84500FFF7D7
:104B1000ABFB05A901A800F05FF9F0B92046FFF74B
:104B200038F8A0B104F110000599FFF7D9FC204630
:104B3000FFF713FA00F082FB002895D14FF0805068
:104B400009490860BFF34F8FBFF36F8F8CE7204692
:104B5000FFF703FA00F072FB86E72046FFF7FDF946
:104B600000F06CFB0020ADE704ED00E02DE9F84F0C
:104B700007468A4690461E463C4654B900BF502020
:104B800080F31188BFF34F8FBFF36F8F00BF00BF5B
:104B9000FEE7BAF1000F01D1206C08B9012000E056
:104BA000002050B900BF502080F31188BFF34F8F11
:104BB000BFF36F8F00BF00BFFEE7022E02D1E06B94
:104BC000012801D1012000E0002050B900BF502091
:104BD00080F31188BFF34F8FBFF36F8F00BF00BF0B
:104BE000FEE7FFF7C5FB00BF5021EFF3118081F313
:104BF0001188BFF34F8FBFF36F8F00BF0546A06BC7
:104C0000E16B884201D3022E25D194F945B0A06B07
:104C10000090324651462046FEF7D5FD0BF10100CB
:104C200088B9606A08B9012000E0002050B904F199
:104C3000240000F0B7FA28B1B8F1000F02D001202B
:104C4000C8F8000004E00BF1010040B284F8450010
:104C50004FF0010901E04FF0000900BF85F3118812
:104C600000BF484600F000B818BCBDE8E08F000067
:104C70002DE9F74183B005460E464FF000082C465B
:104C800054B900BF502080F31188BFF34F8FBFF39A
:104C90006F8F00BF00BFFEE70EB9206C08B901207E
:104CA00000E0002050B900BF502080F31188BFF30E
:104CB0004F8FBFF36F8F00BF00BFFEE700F068F9B2
:104CC00008B9059808B9012000E0002050B900BFDC
:104CD000502080F31188BFF34F8FBFF36F8F00BF59
:104CE00000BFFEE700BFFFF795FAA76BF7B13146AB
:104CF0002046FEF753FD781EA063206908B9012005
:104D000000E0002060B904F1100000F04BFA38B167
:104D10004FF080502F490860BFF34F8FBFF36F8F64
:104D2000FFF7A2FA012006B0BDE8F081059818B996
:104D3000FFF79AFA0020F6E7B8F1000F04D101A8B6
:104D4000FFF7BCFB4FF00108FFF78EFAFFF760FC9E
:104D5000FFF760FA94F94400401C10B9002084F871
:104D6000440094F94500401C10B9002084F8450027
:104D7000FFF77AFA05A901A800F02EF8F0B920464D
:104D8000FEF7FAFEA0B104F124000599FFF7A8FB95
:104D90002046FFF7E2F800F051FA0028A3D14FF0C7
:104DA00080500C490860BFF34F8FBFF36F8F9AE7B5
:104DB0002046FFF7D2F800F041FA94E72046FFF7CB
:104DC000CCF800F03BFA2046FEF7D6FE00288AD049
:104DD0000020A8E704ED00E070B505460C4655B983
:104DE00000BF502080F31188BFF34F8FBFF36F8F48
:104DF00000BF00BFFEE754B900BF502080F3118808
:104E0000BFF34F8FBFF36F8F00BF00BFFEE7FFF709
:104E100001FA124802686868131A2068401C08B931
:104E2000002617E00E4928680968884204D068689F
:104E3000904201D801260DE02068984207D92068E9
:104E4000C01A20602846FFF739FB002602E0002048
:104E500020600126FFF708FA304670BD1C000010E4
:104E6000300000102DE9FF4F85B080468946174677
:104E7000DDE912ABB800FFF7AFF8064656B15C208B
:104E8000FFF7AAF804460CB1266304E03046FFF7AA
:104E900009FA00E000248CB1002084F85900CDE923
:104EA00000ABCDE902403A4649464046089BFEF732
:104EB0006CFD2046FEF7B8FB012501E04FF0FF3501
:104EC000284609B000F000B830BCBDE8C08F2DE91D
:104ED000F04F85B00746884691469A46DDE90EB602
:104EE000109C0EB1012000E0002050B900BF5020FE
:104EF00080F31188BFF34F8FBFF36F8F00BF00BFE8
:104F0000FEE70CB1012000E0002050B900BF5020A6
:104F100080F31188BFF34F8FBFF36F8F00BF00BFC7
:104F2000FEE75C20039003985C2801D1012000E09B
:104F3000002050B900BF502080F31188BFF34F8F7D
:104F4000BFF36F8F00BF00BFFEE700BFB4B1AEB1CB
:104F500025462C462E63022085F85900002004A91E
:104F600053464A46CDE900B1CDE9025041463846A4
:104F7000FEF70BFD2846FEF757FB01E000200490EA
:104F8000049805B000F000B830BCBDE8C08F000048
:104F90000549096809B9012005E00449096809B90A
:104FA000022000E0002070472400001040000010A4
:104FB00001490868704700001C0000102DE9F0410D
:104FC0004FF000084348006800287BD14248006841
:104FD000451C4148056015BB40480068006808B999
:104FE000012000E0002050B900BF502080F311885C
:104FF000BFF34F8FBFF36F8F00BF00BFFEE737488F
:105000000768374800683549086035480760354803
:105010000068401C33490860FEF7F0FE00BF3248CC
:10502000006885423BD300BF2C480068006808B97F
:10503000012000E0002020B14FF0FF302A49086035
:105040002CE026480068C068C4686668B54202D291
:105050002548066022E0201DFFF77AF8A06A18B103
:1050600004F11800FFF774F82049E06A09688842E3
:1050700002D91E49E06A0860E16A01EB81011C4A1D
:1050800002EB8100211DFFF7B9F81A49E06A0968AF
:10509000C96A8842C8D34FF00108C5E700BF154868
:1050A0000068C06A00EB8000114951F82000012817
:1050B00001D94FF001081048006808B14FF001080D
:1050C00005E0FFE70D480068401C0C4908604046B9
:1050D000BDE8F081400000101C0000100C00001022
:1050E00010000010300000103800001020000010E8
:1050F00068010010080000102C00001028000010AB
:1051000070B505462C460026002D43D02248006885
:10511000844201D1012000E0002050B900BF50209E
:1051200080F31188BFF34F8FBFF36F8F00BF00BFB5
:10513000FEE7206D50B900BF502080F31188BFF307
:105140004F8FBFF36F8F00BF00BFFEE7206D401E83
:105150002065E16CE06A88421CD0206DD0B9201D2A
:10516000FEF7F6FFE06CE062E06AC0F13800A06193
:105170000A49E06A0968884202D90849E06A086079
:10518000E16A01EB8101064A02EB8100211DFFF774
:1051900035F80126304670BD0800001020000010D0
:1051A0006801001070B50646F068C46854B900BFC5
:1051B000502080F31188BFF34F8FBFF36F8F00BF74
:1051C00000BFFEE704F11800FEF7C2FF15480068B3
:1051D000A0B9201DFEF7BCFF1349E06A09688842A8
:1051E00002D91149E06A0860E16A01EB81010F4AC6
:1051F00002EB8100211DFFF701F804E004F1180122
:105200000B48FEF7FBFF0B49E06A0968C96A884250
:1052100004D9012501200849086000E0002528463E
:1052200070BD000040000010200000106801001058
:10523000F0050010080000102C00001070B50024CC
:1052400000263648006850B900BF502080F311880E
:10525000BFF34F8FBFF36F8F00BF00BFFEE7FEF7B6
:10526000D9FF2E480068401E2C4908600846006897
:1052700000284ED12A48006800284AD023E0294857
:10528000C068C46804F11800FEF762FF201DFEF735
:105290005FFF2549E06A0968884202D92249E06A2D
:1052A0000860E16A01EB8101204A02EB8100211DC7
:1052B000FEF7A4FF1E49E06A0968C96A884202D362
:1052C00001201C4908601748006808B9012000E067
:1052D00000200028D3D00CB1FEF790FD16480568D9
:1052E00065B100BFFFF76AFE10B1012011490860E7
:1052F0006D1E002DF6D100200F4908600D48006892
:1053000038B1012630070D490860BFF34F8FBFF356
:105310006F8FFEF7A9FF304670BD000040000010FF
:1053200018000010F00500102000001068010010A7
:10533000080000102C0000102800001004ED00E010
:1053400010B586B00024FEF7CBF916480068D0B13E
:1053500000200590049003AA04A905A8FEF718FFF1
:105360000222DDE904100023CDE9002102900EA104
:105370000F48039AFFF7ABFD0E4908600846006826
:1053800000B1012400BF54B900BF502080F3118840
:10539000BFF34F8FBFF36F8F00BF00BFFEE7204604
:1053A00006B010BD4C000010546D7220537663009F
:1053B000413F0008500000102DE9FF4704460D460C
:1053C00016461F46DDF830804FF0000954B900BF83
:1053D000502080F31188BFF34F8FBFF36F8F00BF52
:1053E00000BFFEE71448006810B3009501960294D0
:1053F000062D15DAFFF7CCFD022808D1002342461E
:1054000069460D480068FFF7DDFA814610E0002389
:105410001A46694608480068FFF7D4FA814607E053
:1054200000233A46694604480068FFF79FFB81461F
:10543000484604B0BDE8F0874C000010C05C00088E
:10544000000000000000000000000000000000005C
:105450000002000018000000000000000000000032
:105460000000000000000000002F00000000070006
:10547000070000147F147F1400242A7F2A12006280
:10548000640813230036495522500000050300002C
:1054900000001C224100000041221C000014083EB4
:1054A00008140008083E0808000000A0600000087A
:1054B00008080808000060600000002010080402CE
:1054C000003E5149453E0000427F4000004261518C
:1054D0004946002141454B31001814127F10002726
:1054E00045454539003C4A494930000171090503E9
:1054F00000364949493600064949291E000036361A
:10550000000000005636000000081422410000147C
:105510001414141400004122140800020151090659
:1055200000324959513E007C1211127C007F4949DA
:105530004936003E41414122007F4141221C007F0B
:1055400049494941007F09090901003E4149497A19
:10555000007F0808087F0000417F41000020404193
:105560003F01007F08142241007F40404040007FFF
:10557000020C027F007F0408107F003E4141413E43
:10558000007F09090906003E4151215E007F09198B
:1055900029460046494949310001017F0101003F88
:1055A0004040403F001F2040201F003F4038403F08
:1055B000006314081463000708700807006151496C
:1055C000454300007F41410000552A552A550000FF
:1055D00041417F000004020102040040404040407D
:1055E000000001020400002054545478007F484415
:1055F000443800384444442000384444487F00384C
:105600005454541800087E0901020018A4A4A47C74
:10561000007F080404780000447D4000004080843E
:105620007D00007F102844000000417F4000007C86
:1056300004180478007C0804047800384444443892
:1056400000FC242424180018242418FC007C0804DE
:10565000040800485454542000043F444020003CB7
:105660004040207C001C2040201C003C4030403C3E
:10567000004428102844001CA0A0A07C00446454CE
:105680004C44141414141414000000000000000012
:105690000000000000000000000000F80000000012
:1056A000000000333000000000100C06100C060053
:1056B000000000000000000040C07840C0784000BA
:1056C000043F04043F040400007088FC083000001C
:1056D000001820FF211E0000F008F000E018000074
:1056E00000211C031E211E0000F00888700000002D
:1056F0001E2123241927211010160E00000000007F
:105700000000000000000000000000E0180402009B
:10571000000000071820400000020418E00000000C
:105720000040201807000000404080F0804040000A
:105730000202010F01020200000000F00000000060
:105740000101011F01010100000000000000000034
:1057500080B07000000000000000000000000000A9
:105760000001010101010101000000000000000032
:1057700000303000000000000000000080601804CD
:10578000006018060100000000E010080810E000AA
:10579000000F102020100F00001010F80000000073
:1057A0000020203F202000000070080808887000BA
:1057B000003028242221300000300888884830003A
:1057C0000018202020110E000000C02010F800005A
:1057D00000070424243F240000F8088888080800F3
:1057E0000019212020110E0000E010888818000008
:1057F000000F112020110E0000380808C8380800DA
:105800000000003F00000000007088080888700059
:10581000001C222121221C0000E010080810E000DA
:105820000000312222110F00000000C0C000000063
:105830000000003030000000000000800000000088
:105840000000806000000000000080402010080080
:105850000001020408102000404040404040400049
:105860000404040404040400000810204080000024
:105870000020100804020100007048080808F00029
:105880000000003036010000C030C828E810E000F9
:105890000718272423140B000000C038E000000084
:1058A000203C23020227382008F8888888700000EE
:1058B000203F202020110E00C030080808083800C2
:1058C000071820202010080008F808080810E00039
:1058D000203F202020100F0008F88888E8081000DA
:1058E000203F20202320180008F88888E8081000AE
:1058F000203F200003000000C030080808380000E6
:1059000007182020221E020008F808000008F808E6
:10591000203F210101213F20000808F8080800006D
:105920000020203F2020000000000808F8080800A0
:10593000C08080807F00000008F888C02818080018
:10594000203F20012638200008F808000000000051
:10595000203F20202020300008F8F800F8F8080048
:10596000203F003F003F200008F830C00008F80842
:10597000203F200007183F00E01008080810E00052
:105980000F10202020100F0008F808080808F00069
:10599000203F210101010000E01008080810E0008C
:1059A0000F18242438504F0008F888888888700021
:1059B000203F2000030C30200070880808083800C1
:1059C0000038202121221C00180808F808081800B7
:1059D0000000203F2000000008F808000008F80838
:1059E000001F202020201F000878880000C83808E9
:1059F000000007380E010000F80800F80008F80061
:105A0000033C0700073C03000818688080681808FA
:105A100020302C03032C30200838C800C838080078
:105A20000000203F2000000010080808C8380800C7
:105A30002038262120201800000000FE020202006B
:105A40000000007F40404000000C30C0000000001B
:105A5000000000010638C00000020202FE00000043
:105A6000004040407F0000000000040202020400E9
:105A70000000000000000000000000000000000026
:105A8000808080808080808000020204000000000E
:105A90000000000000000000000080808080000006
:105AA0000019242222223F2008F8008080000000F4
:105AB000003F112020110E000000008080800000B7
:105AC000000E112020201100000000808088F800C6
:105AD000000E112020103F200000808080800000F8
