:020000040800F2
:10000000805600209D0200082D5B0008694600080C
:10001000295B00083F0400084D6C00080000000048
:10002000000000000000000000000000DD010008EA
:10003000CB0500080000000039020008755F0008C9
:10004000B7020008B7020008B7020008B7020008AC
:10005000B7020008B7020008AD170008B702000891
:10006000B7170008C1170008B7020008B702000858
:10007000B7020008B7020008B7020008B70200087C
:10008000B7020008B7020008B7020008B70200086C
:10009000B7020008B7020008B7020008B70200085C
:1000A000B702000859600008B7020008B70200084C
:1000B0006960000879600008B70200087D46000802
:1000C0006D460008B7020008B7020008B702000832
:1000D000C55D0008C56A0008B7020008E16A0008AB
:1000E000B7020008B7020008B702000889600008DC
:1000F000B9600008A960000899600008B70200080C
:1001000000000000B7020008B7020008B7020008AC
:100110000000000000000000B7020008B70200085D
:10012000B7020008B7020008A1040008B7020008DF
:10013000B7020008B7020008B7020008B7020008BB
:10014000B7020008B7020008B7020008B7020008AB
:10015000B7020008B7020008B1040008B70200089F
:10016000B7020008B702000800000000000000000D
:10017000000000000000000000000000000000007F
:10018000B7020008B70200080000000000000000ED
:10019000B7020008B70200080000000000000000DD
:1001A000000000000000000000000000000000004F
:1001B000B70200080000000000000000B7020008BD
:1001C000B7020008DFF810D000F0FCF80048004744
:1001D0009D730008AFF30080805600202C4B1968F7
:1001E0000868B0E8F04F80F30988BFF36F8F4FF0D5
:1001F000000080F311887047000000000848006884
:10020000006880F308884FF0000080F3148862B61D
:1002100061B6BFF34F8FBFF36F8F00DF00BF00BF2A
:1002200008ED00E0DFF80C00016841F470010160A6
:10023000704700BF88ED00E0EFF30980BFF36F8FD8
:10024000134B1A681EF0100F08BF20ED108A20E92A
:10025000F04F106009B44FF0500080F31188BFF3E5
:100260004F8FBFF36F8F08F0CFFD4FF0000080F38A
:10027000118809BC19680868B0E8F04F1EF0100F2B
:1002800008BFB0EC108A80F30988BFF36F8F704706
:10029000BC000020EFF3058070470000064880474F
:1002A00006480047FEE7FEE7FEE7FEE7FEE7FEE75B
:1002B000FEE7FEE7FEE7FEE745600008C50100082F
:1002C0002DE9F05F0546002092469B46884606468B
:1002D000814640241BE0284641464746224600F01E
:1002E00061F853465A46C01A914110D31146184638
:1002F000224600F048F82D1A67EB01084F462246C7
:100300000120002100F03FF817EB00094E41201EAC
:10031000A4F10104DFDC484631462A464346BDE8E5
:10032000F09F40EA01039B0703D009E008C9121FB0
:1003300008C0042AFAD203E011F8013B00F8013B9F
:10034000521EF9D27047D2B201E000F8012B491ECB
:10035000FBD270470022F6E710B513460A46044662
:100360001946FFF7F0FF204610BD10B5002200E04F
:10037000521C835C8C5CA34201D1002BF8D1D8B213
:10038000E1B2401A10BD202A04DB203A00FA02F143
:10039000002070479140C2F1200320FA03F3194373
:1003A00090407047202A04DB203A21FA02F0002115
:1003B000704721FA02F3D040C2F120029140084375
:1003C00019467047064C074D06E0E06840F001030F
:1003D00094E8070098471034AC42F6D3FFF7F6FED6
:1003E00080A70008A0A7000870B58C1810F8015B62
:1003F00015F0070301D110F8013B2A1106D110F8BE
:10040000012B03E010F8016B01F8016B5B1EF9D1C1
:100410002B0705D40023521E0DD401F8013BFAE747
:1004200010F8013BCB1A921C03E013F8015B01F8B2
:10043000015B521EF9D5A142D8D3002070BD00BF88
:10044000FEE7000010B502460B46FF20104C20705E
:10045000104C207010E012F8010B0D4C247880EA4B
:1004600004010D48405C0B4C24786040084C20701F
:100470000A48405C074C2070181EA3F10104A3B287
:10048000E9D104480078024C247840EA042010BDE9
:100490007E0100207F0100208001002080020020DA
:1004A00010B5024801F0C2FB10BD00007406002028
:1004B00010B5024801F0BAFB10BD0000D4060020C0
:1004C0000146087810381823B0FBF3F20848805C26
:1004D000C865032A05D908686FF30900001D8865FF
:1004E00003E008686FF309008865886D70470000B5
:1004F000FAA50008014600208A6A8B69CBB932B19F
:10050000012A0DD0022A03D0032A10D10EE000BF29
:10051000CB6A03F08073B3F1807F00D1012007E044
:10052000CB6AB3F1C07F00D1012001E000E000BF41
:1005300034E08B69B3F5005F1AD132B1012A07D0DC
:10054000022A03D0032A11D10AE000BF01200EE0E5
:10055000CB6A03F08073B3F1807F00D1012006E005
:10056000CB6AB3F1C07F00D1012000E000BF15E0ED
:1005700032B1012A05D0022A04D0032A0CD103E0AB
:1005800000BF00BF012008E0CB6A03F08073B3F125
:10059000807F00D1012000E000BF00BF704730B570
:1005A0000468246824F4802405682C60046863606F
:1005B0008468402C04D10468A2600468E16003E010
:1005C0000468A1600468E26030BD70478EB0002707
:1005D0000025002400BF012006F084FF3223002202
:1005E00005A9FE48006806F0D3FFC7B2002FF2D17C
:1005F000FB480078022804DA142105A8FFF7AAFEB8
:10060000E9E7F74800780228E5D10020F5490870AD
:100610009DF814008DF828009DF815008DF829002C
:1006200000208DF82A008DF82B009DF81A008DF817
:100630002E009DF81B008DF82F009DF81B0005284B
:1006400070D007DC01280AD002286CD0032841F0C2
:10065000998033E1062867D01028F8D1E8E39DF8A7
:100660001C0020287DD19DF81D0005284AD006DCFD
:10067000052877D2DFE800F06529434445000628C5
:100680007CD0092870D00A2802D064286AD100E002
:10069000A6E000208DF82C0005208DF82D0001200B
:1006A0008DF83000D0480078012802D18DF8310053
:1006B00005E0CD48007810B900208DF831000A22FD
:1006C0000AA9012007F04AFF8AE000208DF82C00DB
:1006D00005208DF82D0001208DF83000C3480078EA
:1006E000012803D100208DF8310002E001208DF8AF
:1006F00031000A220AA9012007F030FF70E06FE004
:100700006EE06DE000208DF82C0005208DF82D00A6
:1007100001208DF83000B4480078012805D18DF80B
:10072000310008E096E362E0FEE3AF48007810B9DC
:1007300000208DF831000A220AA9012007F00EFFDF
:100740004EE000208DF82C0005208DF82D000120B2
:100750008DF83000A6480078012806D18DF83100C8
:1007600006E03EE03BE009E018E000208DF83100B3
:100770000A220AA9012007F0F1FE31E000208DF8DD
:100780002C0005208DF82D0001208DF830008DF80B
:1007900031000A220AA907F0E1FE21E000208DF8CD
:1007A0002C0006208DF82D0001208DF8300001026C
:1007B000904801F00DFD012802D18DF8310008E0CC
:1007C0004FF480718B4801F003FD10B900208DF8C3
:1007D00031000A220AA9012007F0C0FE00E000BF94
:1007E00000BF00200A900B900C900D90FEE30020BB
:1007F0008DF82C0004208DF82D0001208DF830009C
:100800009DF81C00C8B99DF81D00012815D10121D3
:10081000784801F0DDFC38B901208DF831000A225A
:100820000AA907F09BFE43E000208DF831000A2260
:100830000AA9012007F092FE3AE09DF81C00C8B911
:100840009DF81D00032815D108216A4801F0C0FC5D
:1008500038B901208DF831000A220AA907F07EFE7E
:1008600026E000208DF831000A220AA9012007F0B5
:1008700075FE1DE09DF81C00C8B99DF81D000428F8
:1008800015D104215B4801F0A3FC38B901208DF893
:1008900031000A220AA907F061FE09E000208DF864
:1008A00031000A220AA9012007F058FE00E000BF2B
:1008B00000200A900B900C900D9097E79DF81F0078
:1008C0009DF81E1040EA01204FF6FF7101EA400436
:1008D00000208DF82C00E01CC0B28DF82D009DF892
:1008E0001C00012878D1022C77D19DF81D004A28E0
:1008F0000DD1E0B28DF8300000208DF831008DF878
:1009000032000B220AA9012007F028FE9CE29DF884
:100910001D004E280DD1E0B28DF8300000208DF87A
:1009200031008DF832000B220AA9012007F016FED3
:100930008AE29DF81D0088B9E0B28DF830002E489B
:100940000088000A8DF831002B4800788DF83200BD
:100950000B220AA9012007F001FE75E29DF81D0097
:10096000302811D1E0B28DF8300024480088000A08
:100970008DF83100214800788DF832000B220AA949
:10098000012007F0EBFD5FE29DF81D0032280DD13C
:10099000E0B28DF8300000208DF831008DF8320083
:1009A0000B220AA9012007F0D9FD4DE29DF81D0098
:1009B0007728ABD1E0B28DF830000C4800780128E0
:1009C0001ED100208DF8310001208DF832000B225D
:1009D0000AA907F0C3FD37E262E01FE09C00002097
:1009E0004C0000205C0000204D0000205100002041
:1009F00053000020000802401C0000205800002086
:100A0000FE480078002893D18DF831008DF832002F
:100A10000B220AA9012007F0A1FD15E2042C87D1C1
:100A20009DF81D002C281BD1E0B28DF83000F44851
:100A30000068000E8DF83300F1480068000C8DF856
:100A40003400EF480088000A8DF83100EC48007847
:100A50008DF832000D220AA9012007F07FFDF3E195
:100A60009DF81D002E288ED1E0B28DF83000E548AB
:100A70000068000E8DF83300E2480068000C8DF825
:100A80003400E0480088000A8DF83100DD48007825
:100A90008DF832000D220AA9012007F05FFDD3E195
:100AA0009DF81C00002896D1022C23D19DF81D0032
:100AB00020280DD1E0B28DF8300000208DF83100F3
:100AC0008DF832000B220AA9012007F047FDBBE197
:100AD0009DF81D009628A0D1E0B28DF830000020CE
:100AE0008DF831008DF832000B220AA9012007F0A1
:100AF00035FDA9E1042C90D19DF81D0064281BD17F
:100B0000E0B28DF83000C0480068000E8DF8330068
:100B1000BD480068000C8DF83400BB480088000A0E
:100B20008DF83100B84800788DF832000D220AA9FE
:100B3000012007F013FD87E19DF81D00682814D1FE
:100B4000E0B28DF83000280E8DF83300280C8DF8B7
:100B50003400280A8DF83100E8B28DF832000D22F9
:100B60000AA9012007F0FAFC6EE19DF81D00782823
:100B70001BD1E0B28DF83000A4480068000E8DF85B
:100B80003300A2480068000C8DF834009F480088AC
:100B9000000A8DF831009D4800788DF832000D2252
:100BA0000AA9012007F0DAFC4EE19DF81D007A2821
:100BB00011D1E0B28DF8300000208DF833008DF8AF
:100BC00034008DF831008DF832000D220AA9012081
:100BD00007F0C4FC38E19DF81D007C281BD1E0B271
:100BE0008DF830008A480068000E8DF83300884880
:100BF0000068000C8DF8340085480088000A8DF8E4
:100C00003100834800788DF832000D220AA90120B6
:100C100007F0A4FC18E19DF81D007E2811D1E0B278
:100C20008DF8300000208DF831008DF832008DF8FD
:100C300033008DF834000D220AA9012007F08EFC44
:100C400002E19DF81D0080281BD1E0B28DF8300034
:100C500070480068000E8DF833006E480068000C84
:100C60008DF834006B480088000A8DF8310069481F
:100C700000788DF832000D220AA9012007F06EFCE1
:100C8000E2E09DF81D0087287ED10821624801F02E
:100C90009FFA01281FD1614890ED000ADFED600A3C
:100CA00020EE200ADFED5E0AB4EEE00AF1EE10FA63
:100CB00011D2E0B28DF8300000208DF833008DF8AD
:100CC00034008DF831008DF832000D220AA9012080
:100CD00007F044FC72E008214F4801F079FA01283E
:100CE0006CD14E4890ED000ADFED4D0A60EE200A0F
:100CF000474890ED000AB8EE400AF4EEC00AF1EE63
:100D000010FA11D890ED000AB8EE400A4348D0ED31
:100D1000000A9FED431A00EEC10ADFED410AB4EE6E
:100D2000E00AF1EE10FA22D33C4890ED000ADFED24
:100D30003C0A60EE200A364890ED000AB8EE400A00
:100D4000F4EEC00AF1EE10FA38DB90ED000AB8EECE
:100D5000400A3248D0ED000A9FED311A10EE810AA8
:100D6000DFED2F0AB4EEE00AF1EE10FA26D2E0B27F
:100D70008DF83000264800680A21B0FBF1F0000E23
:100D80008DF83300224800E05EE00068B0FBF1F02F
:100D9000000C8DF834001E480068B0FBF1F0000A2A
:100DA0008DF831001A480068B0FBF1F0C0B28DF840
:100DB00032000D220AA9012007F0D0FB00260020F6
:100DC000184908700120184908708DF800000320A8
:100DD0008DF8010000208DF8020004208DF803003A
:100DE00000208DF8040002208DF805000023012268
:100DF00069460E48006806F059FC1EE051000020CC
:100E000038000020340000202000002028000020AE
:100E10002C000020300000200008024018000020B4
:100E200000007A44500000204F000020A80000205D
:100E300076E3761C0A2006F055FBFE480078012870
:100E400001D10A2EF5DB00BF00200A900B900C9018
:100E50000D90CBE400208DF82C0006208DF82D009D
:100E60009DF81C008DF830009DF81D008DF83100B4
:100E70009DF81C0020287CD19DF81D00152879D2F2
:100E8000DFE800F0FD0BB5FCFBFAF9F878F77878AD
:100E9000787878F678787878F5009DF81E00FF2845
:100EA0007BD18DF8320000208DF833000C220AA986
:100EB000012007F053FB0020DF490870DF4890ED68
:100EC000000AB5EEC00AF1EE10FA30D8DC4800682E
:100ED0004FF47A71B0FBF1F000EB400040F2FF11EB
:100EE00001EA40008001D749086001208DF8000028
:100EF00006208DF8010000208DF80200C9208DF831
:100F0000030008460088000A8DF8040008460078AF
:100F10008DF80500002301226946CB48006806F0E1
:100F2000C5FB0120C94900E09FE208705DE0C448AC
:100F300000684FF47A71B0FBF1F000EB400040F232
:100F4000FF1101EA40004FF4004141EA8010BD4921
:100F5000086001208DF8000006208DF801000020B7
:100F60008DF80200C9208DF8030008460088000AA9
:100F700002E074E271E210E08DF8040008460078A7
:100F80008DF80500002301226946AF48006806F08D
:100F90008DFB0120AD49087027E09DF81E0020BBA5
:100FA00000208DF832008DF833000C220AA90120B0
:100FB00007F0D4FA01208DF8000006208DF801001A
:100FC00000208DF80200C8208DF8030000208DF865
:100FD00004008DF805000023012269469A48006844
:100FE00006F064FB00209949087037E23CE29DF866
:100FF0001E00FF2826D18DF8320000208DF8330026
:101000000C220AA9012007F0A9FA01208DF800009E
:1010100006208DF8010000208DF80200C8208DF810
:10102000030000208DF8040001208DF80500002346
:10103000012269468448006806F038FB0120834994
:1010400008702EE000208DF832008DF833000C225D
:101050000AA9012007F082FA01208DF8000006207D
:101060008DF8010000208DF80200C82008E03FE163
:10107000DEE1BDE1A7E189E1B5E063E012E06AE10C
:101080008DF8030000208DF804008DF80500002382
:10109000012269466C48006806F008FB00206B4995
:1010A0000870DBE19DF81E00FF2825D18DF8320085
:1010B00000208DF833000C220AA9012007F04EFA17
:1010C00001208DF8000006208DF8010000208DF829
:1010D0000200C8208DF8030001208DF804008DF86F
:1010E00005000023012269465748006806F0DEFA31
:1010F00001205649087024E000208DF832008DF858
:1011000033000C220AA9012007F028FA01208DF8EB
:10111000000006208DF8010000208DF80200C82094
:101120008DF8030000208DF804008DF805000023E1
:10113000012269464448006806F0B8FA0020434995
:1011400008708BE19DF81E00FF2826D18DF8320033
:1011500000208DF833000C220AA9012007F0FEF9C7
:1011600001208DF8000006208DF8010000208DF888
:101170000200C8208DF8030000208DF80400012033
:101180008DF805000023012269462F48006806F00B
:101190008DFA01202D49087024E000208DF83200DE
:1011A0008DF833000C220AA9012007F0D7F901209D
:1011B0008DF8000006208DF8010000208DF8020057
:1011C000C8208DF8030000208DF804008DF805007C
:1011D0000023012269461C48006806F067FA0020D7
:1011E0001A4908703AE19DF81E00FF285AD18DF87F
:1011F000320000208DF833000C220AA9012007F0EC
:10120000ADF913480078012871D18DF80000102045
:101210008DF8010000208DF80200D0208DF8030029
:1012200000208DF8040002208DF8050004208DF8C0
:1012300006000FE04F0000205100002018000020A1
:101240002000002024000020A80000204D000020E5
:1012500052000020FA4800680A21B0FBF1F0000AB1
:101260008DF80700F6480068B0FBF1F0C0B28DF8C9
:101270000800F3480068B0FBF1F0000E8DF809009B
:10128000EF480068B0FBF1F0000C8DF80A00002375
:1012900001226946EB48006806F008FA0120EA4995
:1012A000087024E000208DF832008DF833000C2205
:1012B0000AA9012007F052F901208DF8000006204C
:1012C0008DF8010000208DF80200C8208DF8030081
:1012D00000208DF804008DF80500002301226946E6
:1012E000D848006806F0E2F90020D7490870B5E058
:1012F0009DF81E00FF2823D18DF8320000208DF8C4
:101300003300D148007801281FD18DF80000062055
:101310008DF8010000208DF80200C8208DF8030030
:1013200000208DF804008DF8050000230122694695
:10133000C448006806F0BAF90020C349087004E008
:1013400000208DF832008DF833000C220AA901200C
:1013500007F004F982E09DF81E00FF2809D1012062
:10136000BA490870FF208DF8320000208DF8330054
:1013700006E00020B54908708DF832008DF8330082
:101380000C220AA9012007F0E9F867E09DF81E0089
:10139000FF280AD18DF8320000208DF833000C228E
:1013A0000AA9012007F0DAF80CE09DF81E0048B900
:1013B00000208DF832008DF833000C220AA901209C
:1013C00007F0CCF84AE09DF81E00FF2805D18DF803
:1013D000320000208DF8330004E000208DF8320048
:1013E0008DF833000C220AA9012007F0B7F835E088
:1013F0009DF81E00FF280AD18DF8320000208DF8DC
:10140000330001221102924800F0F4FE0AE00020AD
:101410008DF832008DF8330000224FF480718C4833
:1014200000F0E8FE0C220AA9012007F097F815E069
:101430009DF81E00FF2805D18DF8320000208DF8A0
:10144000330004E000208DF832008DF833000C22C8
:101450000AA9012007F082F800E000BF00BF0020C9
:101460000A900B900C900D908DE100208DF82C00CF
:1014700006208DF82D009DF81C008DF830009DF899
:101480001D008DF831009DF81E008DF832009DF88A
:101490001F008DF833009DF81C0001283AD19DF8FB
:1014A0001D004A2805D10C220AA9012007F056F890
:1014B00030E09DF81D004E2805D10C220AA901201C
:1014C00007F04CF826E09DF81D0090B99DF81E002D
:1014D00010B99DF81F0018B101205E49087002E0A4
:1014E00000205C4908700C220AA9012007F036F898
:1014F00010E09DF81D0030280CD19DF81F009DF8CC
:101500001E1040EA0120544908800C220AA901203B
:1015100007F024F800200A900B900C900D9032E117
:1015200000208DF82C0006208DF82D009DF81C0061
:101530008DF830009DF81D008DF831009DF81E00DB
:101540008DF832009DF81F008DF833009DF81C00C7
:1015500088BB9DF81D00642815D19DF822009DF8D8
:10156000211040EA01209DF8231040EA01609DF817
:10157000241040EA0140394908600C220AA90120E0
:1015800006F0ECFFF8E09DF81D00682814D19DF8E6
:1015900022009DF8211040EA01209DF8231040EA26
:1015A00001609DF8241040EA01450C220AA901209F
:1015B00006F0D4FFE0E0A0E09DF81D00782851D1AE
:1015C0009DF822009DF8211040EA01209DF823108B
:1015D00040EA01609DF8241040EA0140204908607B
:1015E0000C220AA9012006F0B9FF01208DF80000A5
:1015F00006208DF8010000208DF802009A208DF859
:101600000300174800684FF47A71B0FBF1F000EB6B
:101610004000C0F3D7108DF8040011480068B0FBFB
:10162000F1F000EB40004006000E8DF805000023AD
:10163000012269460348006806F038F89CE0000083
:101640002C000020A80000204D00002053000020A6
:10165000000802404E00002058000020200000201A
:10166000280000209DF81D007A2805D10C220AA927
:10167000012006F073FF7FE09DF81D007C2818D143
:101680000120444908709DF822009DF8211040EA8D
:1016900001209DF8231040EA01609DF8241040EAE3
:1016A00001403D4908600C220AA9012006F056FFBE
:1016B00062E09DF81D007E2805D10C220AA90120B8
:1016C00006F04CFF58E09DF81D00802854D19DF88D
:1016D00022009DF8211040EA01209DF8231040EAE5
:1016E00001609DF8241040EA01402C4908600C225A
:1016F0000AA9012006F032FF3EE09DF81C000128F7
:101700003AD19DF81D002C281DD19DF822009DF88E
:10171000211040EA01209DF8231040EA01609DF865
:10172000241040EA01401E490860084690ED000A76
:10173000B8EE400A1B4880ED000A0C220AA90120DD
:1017400006F00CFF18E09DF81D002E2814D19DF81E
:1017500022009DF8211040EA01209DF8231040EA64
:1017600001609DF8241040EA01400F4908600C22F6
:101770000AA9012006F0F2FE00200A900B900C90BE
:101780000D9000E000BF00BF142105A8FEF7E2FDA8
:10179000FEF721BF520000202C0000203000002066
:1017A00038000020400000203400002010B5012047
:1017B00000F022FC10BD10B5042000F01DFC10BD8F
:1017C00010B5082000F018FC10BD000086B070A114
:1017D00003C9CDE9040170A30FCB8DE80F0000BF52
:1017E000012005F07FFE704800780128F8D1002024
:1017F0006D49087008216D4800F0EAFC01281AD1F3
:101800006B480068B8B901206A49087000206A492D
:1018100008809FED6A0A6A4880ED000A0020694945
:1018200008606949087069480078012873D102206E
:10183000664908706FE05E4890ED000AB8EEC00A95
:101840009FED631AC0EE010AB2EE040A20EE800A90
:101850005B4880ED000A90ED000ADFED5E0A20EEA5
:10186000200ABDEEC00A574880ED000A5A480078A9
:10187000012850D108214D4800F0AAFC01284AD186
:101880004F4890ED000ADFED520A60EE200A5348FF
:1018900090ED000AB8EE400AF4EEC00AF1EE10FA3C
:1018A00011D890ED000AB8EE400A4548D0ED000A84
:1018B0009FED471A00EEC10ADFED450AB4EEE00ADB
:1018C000F1EE10FA22D33E4890ED000ADFED400A17
:1018D00060EE200A414890ED000AB8EE400AF4EEAE
:1018E000C00AF1EE10FA16DB90ED000AB8EE400ADD
:1018F0003348D0ED000A9FED361A10EE810ADFED75
:10190000340AB4EEE00AF1EE10FA04D200203249B3
:1019100008702D4908703248007801281AD100203B
:101920002F49087027480068000E8DF80B002548E5
:101930000068000C8DF80C0022480088000A8DF821
:101940000900204800788DF80A000D226946012020
:1019500006F004FE2348007801287FF441AF1948BF
:1019600000788DF8120017480088000A8DF81300DF
:1019700014480068000C8DF8140012480068000E2E
:101980008DF81500062204A9022006F0E7FD27E7DE
:10199000CFAE00000000000019B200000007DB031A
:1019A0000400000000000000500000200008024079
:1019B00060000020510000205A00002000000000BC
:1019C000180000201C0000204D0000204C000020CA
:1019D00000007A440000C842520000202C00002081
:1019E0004F0000204E00002072B600BFFEE700004E
:1019F00008B505F031F91149002005F0FDFA012084
:101A00008DF800008DF8030000208DF80200012001
:101A10008DF8010069460A2005F016FB00BF4FF45F
:101A2000FB71012005F0E6FC41F29411022005F063
:101A3000E1FC322005F056FDF1E700000000002037
:101A40001CB53DA103C9CDE9000100BF012005F08F
:101A500049FD3B480078002865D10821394800F04D
:101A6000B7FB01282CD18DF8000006208DF801006D
:101A700000208DF80200C9208DF803008C208DF81D
:101A8000040080208DF805003C208DF8060094208D
:101A90008DF80700012211022B4800F0ABFB0A234E
:101AA00008226946294802F075FD00224FF4807132
:101AB000254800F09FFB4FF47A7005F013FDC5E751
:101AC0000821204800F084FB0028BFD101208DF8B8
:101AD000000006208DF8010000208DF80200C820CB
:101AE0008DF8030000208DF804008DF80500082013
:101AF0008DF8060034208DF80700012211021248EB
:101B000000F078FB0A2308226946104802F042FDE3
:101B100000224FF480710C4800F06CFB4FF47A7097
:101B200005F0E0FC92E70648007802288ED10020FC
:101B300007F054F88AE70000010600C98C803C9445
:101B40004C0000200008024000000240EC0500208C
:101B500070B50446A56D00F053FB064694F83500B9
:101B6000022808D08020606500BF002084F834007F
:101B700000BF012070BD2068006820F016002168B9
:101B800008602068406920F0800021684861206C6E
:101B900008B9A06C28B12068006820F0080021680E
:101BA00008602068006820F001002168086010E0EB
:101BB00000F026FB801B05280BD920206065032040
:101BC00084F8350000BF002084F8340000BF0320F3
:101BD000D0E72068006800F001000028E8D194F800
:101BE0005C103F208840A860012084F8350000BFC9
:101BF000002084F8340000BF00BFBBE7014691F825
:101C00003500022803D08020486501207047052058
:101C100081F835000868006820F001000A6810604B
:101C20000020F3E7014691F835007047F8B5044607
:101C3000002000908C4800684FF41651B0FBF1F77B
:101C4000A56D2E6894F85C1008208840304098B14B
:101C50002068006800F0040070B12068006820F07F
:101C600004002168086094F85C1008208840A8608F
:101C7000606D40F00100606594F85C1001208840C0
:101C8000304068B12068406900F0800040B194F8AD
:101C90005C1001208840A860606D40F00200606523
:101CA00094F85C1004208840304068B120680068D7
:101CB00000F0020040B194F85C1004208840A86055
:101CC000606D40F00400606594F85C10102088405E
:101CD000304078B32068006800F0080050B394F8F2
:101CE0005C1010208840A8602068006800F4802004
:101CF00080B12068006800F4002028B9206CC8B1C9
:101D00002046216C884715E0A06C98B12046A16C54
:101D100088470FE02068006800F4807028B92068C8
:101D2000006820F0080021680860206C10B120468F
:101D3000216C884794F85C102020884030400028AF
:101D400065D02068006800F0100000285FD094F88B
:101D50005C1020208840A86094F83500052828D120
:101D60002068006820F0160021680860206840693B
:101D700020F0800021684861206C08B9A06C28B16F
:101D80002068006820F008002168086094F85C1062
:101D90003F208840A860012084F8350000BF002063
:101DA00084F8340000BF206D10B12046216D8847B3
:101DB000F8BD2068006800F4802080B120680068C9
:101DC00000F4002028B9606C10B12046616C88478F
:101DD0001DE0E06BD8B12046E16B884717E0206832
:101DE000006800F4807068B92068006820F0100076
:101DF00021680860012084F8350000BF002084F8C5
:101E0000340000BFE06B10B12046E16B8847606D85
:101E100038B3606D00F00100F0B1052084F83500A2
:101E20002068006820F001002168086000BF009869
:101E3000401C0090B84200D905E02068006800F01E
:101E400001000028F3D100BF012084F8350000BF55
:101E5000002084F8340000BFE06C10B12046E16C33
:101E6000884700BFA4E70000B80000202DE9F0413A
:101E70000446002500F0C4F9074614B90120BDE866
:101E8000F081606A00B100BF022084F8350000BF15
:101E9000002084F8340000BF2068006820F00100B2
:101EA000216808600AE000F0ABF9C01B052805D9DD
:101EB00020206065032084F83500E0E72068006892
:101EC00000F001000028EED1206805682148054097
:101ED000D4E901010843E1680843216908436169C5
:101EE0000843A1690843E1690843216A084305439F
:101EF000606A042803D1D4E90B0108430543206834
:101F000005602068456925F00705606A0543606A39
:101F100004280DD1A06A0543E06A48B12046FEF7C7
:101F2000E9FA28B140206065012084F83500A6E771
:101F3000206845612046FEF7C3FA064694F85C1017
:101F40003F208840B06000206065012084F83500A3
:101F5000002094E73F8010F02DE9F04704460D463D
:101F600016461F464FF00008D4F8589000BF94F86A
:101F70003400012802D10220BDE8F087012084F856
:101F8000340000BF94F83500012825D1022084F8E0
:101F90003500002060653B46324629462046FEF764
:101FA000FEFA94F85C103F208840C9F808002068C9
:101FB000006840F0160021680860206C28B1206895
:101FC000006840F00800216808602068006840F060
:101FD00001002168086006E000BF002084F834009A
:101FE00000BF4FF002084046C6E7082802D0042888
:101FF00000D000BF7047000010B5044604480068D8
:10200000204020B1024804602046FFF7EEFF10BDDB
:10201000143C0140F8B503460A4600250024002080
:102020000021C2E0012606FA01F5166806EA050459
:10203000AC4274D1167906F00306012E04D016794D
:1020400006F00306022E13D198684F000326BE4007
:10205000B0434F00D668BE403043986058680126B0
:102060008E40B0431679C6F300168E403043586058
:10207000167906F00306032E09D0D8684F00032610
:10208000BE40B0434F009668BE403043D8601679DA
:1020900006F00306022E13D1CF0803F1200656F8EE
:1020A00027004E07F70E0F26BE40B0434F07FF0E26
:1020B0001669BE403043CF0803F1200646F82700DA
:1020C00018684F000326BE40B043167906F0030699
:1020D0004F00BE4030431860566806F44036002E6C
:1020E00062D000BF00260096324E366846F4804625
:1020F000304F3E603E46366806F48046009600BF8C
:1021000000BF2D4E8F0856F827008E07370F0F2679
:10211000BE40B043294EB34202D1002610E043E056
:10212000274EB34201D101260AE0264EB34201D127
:10213000022605E0244EB34201D1032600E0072623
:102140008F073F0FBE4030431B4E8F0846F82700D5
:102150001E4E3068A043566806F4801606B1204330
:102160001A4E3060361D3068A043566806F40016DB
:1021700006B12043154E361D3060144E361F3068B0
:10218000A043566806F4003606B120430F4E361FB2
:102190003060361F3068A043566806F4803606B1BA
:1021A00020430A4E083E3060491C1029FFF43AAF24
:1021B000F8BD0000443802400838014000000240E9
:1021C0000004024000080240000C0240083C0140AC
:1021D000024613690B400BB1012000E0002070475C
:1021E00010B5426921EA020302EA010443EA04430A
:1021F000836110BD0AB1816101E00B048361704706
:102200000148006870470000AC000020704770472C
:102210002DE9F84F0446206847692068D0F804800B
:10222000002594F83E90C7F3002040B1C8F3002089
:1022300028B145F001056FF4807021684861C7F34B
:10224000402040B1C8F3002028B145F002056FF4EA
:10225000007021684861C7F3802070B3C8F3002084
:1022600058B3CA46B4F82AB094F83D60206B009089
:10227000BAF1200F0FD1BBF1000F0CD1212E06D0E7
:10228000292E04D0282E06D10098212803D12046DB
:1022900002F0B2FF11E06FF480602168486145F000
:1022A0000405B9F1100F02D0B9F1400F05D1206833
:1022B000006840F4007021680860C7F3C02040B196
:1022C000C8F3002028B145F008056FF400602168CC
:1022D00048612DB1206C28432064204602F060FA4A
:1022E000BDE8F88F2DE9F04705464FF00009286852
:1022F0004668D5F82CA095F83E7095F83D80102FD3
:1023000001D0402F75D12868D0F81890286844690A
:1023100004F0010060B9BAF52A0F02D0BAF12A4FD1
:1023200001D1012000E00020012801D1BDE8F087A3
:1023300004F0010048B1C6F3402030B1284602F055
:10234000A5F9284602F012FEB7E0C4F3C00030B190
:10235000C6F3402018B1284602F0BFFCADE0C4F33C
:10236000400030B1C6F3402018B1284602F0CAFC44
:10237000A3E0C9F3800040B32868406800F400601F
:10238000B0F5006FE0D0C4F3C01048B1C6F38020B0
:1023900030B1C4F3800018B9284602F032FC8CE05A
:1023A000C4F380000028CFD0C6F340200028CBD053
:1023B000B8F1210F03D1284602F0D3FB7DE0402F76
:1023C0007BD1284602F021FE77E02868406800F4BF
:1023D0000060B0F5006F70D0C4F3801050B1C6F348
:1023E000802038B1C4F3800020B9284602F041FBB8
:1023F00063E00BE0C4F3800000285ED0C6F3402009
:1024000000285AD0284602F0A1FA56E0286C10B1F4
:102410002868446904E02868D0F81890286844695E
:10242000C4F3400060B1C6F3402048B1286C10B13D
:102430002868D0F818904946284602F0A5FE3CE0EE
:10244000C4F3001030B1C6F3402018B1284602F0A2
:1024500023FF32E0B8F1210F02D0B8F1290F16D1D5
:10246000C4F3C01048B1C6F3802030B1C4F380007B
:1024700018B9284602F065FE1FE0C4F38000E0B101
:10248000C6F34020C8B1284602F04EFE15E0C4F362
:10249000801048B1C6F3802030B1C4F3800018B971
:1024A000284602F01EFE08E0C4F3800028B1C6F3FF
:1024B000402010B1284602F007FE00BF36E7704703
:1024C00070B504460CB9012070BD94F83D0028B9E0
:1024D000002084F83C00204600F0E0F8242084F836
:1024E0003D002068006820F0010021680860206835
:1024F000006840F40040216808602068006820F40B
:1025000000402168086000F045FB05465C496068B2
:10251000884206D85B48854201D2012007E00020AE
:1025200005E05948854201D2012000E00020012841
:1025300000D1C9E75548B5FBF0F62068406820F0A7
:102540003F003043216848604D496068884201D8A7
:10255000701C07E04FF4967070434FF47A71B0FB33
:10256000F1F0401C2168096A21F03F01084321680D
:10257000086243496068884214D8681E616849004F
:10258000B0FBF1F0401CC0F30B00042801D2042082
:102590003DE0681E61684900B0FBF1F0401CC0F3EB
:1025A0000B0034E0A06838B9681E616801EB410196
:1025B000B0FBF1F0401C0AE0681E616801EBC1024B
:1025C00002EB0111B0FBF1F0401C40F48040C0F37D
:1025D0000B0008B901201AE0A06848B9681E6168BC
:1025E00001EB4101B0FBF1F0401CC0F30B000CE02B
:1025F000681E616801EBC10202EB0111B0FBF1F052
:10260000401CC0F30B0040F4804040F400402168BF
:10261000C9694CF6FF72914308432168C861D4E947
:10262000070108432168096821F0C00108432168B7
:102630000860D4E9031008432168896848F2FF3232
:102640009143084321688860D4E905010843216863
:10265000C96821F0FF0108432168C860206800684C
:1026600040F001002168086000202064202084F8E8
:102670003D000020206384F83E0000BF24E70000F6
:10268000A086010080841E0000093D0040420F002A
:1026900070477047704770477047000010B586B0AC
:1026A0000446142101A8FDF755FE234920688842FD
:1026B0003FD100BF002000902048006840F0020099
:1026C0001E4908600846006800F00200009000BF44
:1026D00000BFC02001901220029000200390032030
:1026E00004900420059001A91548FFF793FC00BF52
:1026F0000020009011481030006840F400100F498D
:10270000103108600846006800F40010009000BF17
:1027100000BF002205211F2000F000F91F2000F05B
:10272000EDF800220521202000F0F8F8202000F02C
:10273000E5F806B010BD00000054004030380240FB
:10274000000402407047704770B504460CB9012080
:1027500070BD4CF6CC402168086045F255502168A8
:102760000860D4E9001048602168A0688860FFF71D
:1027700047FD05460BE0FFF743FD401B312806D916
:102780002068C06800F0030008B10320E0E720687B
:10279000C06800F003000028EDD14AF6AA202168A5
:1027A00008600020D4E701464AF6AA200A681060B3
:1027B000002070470348006803490978084401492C
:1027C00008607047AC000020B400002010B50D4830
:1027D000006840F400700B4908600846006840F447
:1027E000806008600846006840F48070086003203C
:1027F00000F0D2F80F2000F007F800F055F80020A4
:1028000010BD0000003C0240F0B587B00446002631
:10281000002700BF002000901E48006840F0010023
:102820001C4908600846006800F00100009000BFE5
:1028300000BF01A902A800F085F900F0BBF9064627
:102840001548B6FBF0F0471E14481549086040F2E1
:10285000E7311348C16047600021016181608161F7
:1028600000F074FF054695B90D4800F0E5FF0546F8
:102870006DB9192000F042F8102C07D20022214631
:10288000192000F04BF80748046000E001252846B5
:1028900007B0F0BD4438024040420F000000014044
:1028A00034070020B000002008B500BF00200090D1
:1028B0001148006840F480400F49086008460068ED
:1028C00000F48040009000BF00BF00BF00200090D7
:1028D000081F006840F08050091F08600846006823
:1028E00000F08050009000BF00BF00220F21901E1A
:1028F00000F014F808BD00004438024001460846C4
:10290000002809DB00F01F0301229A4043099B00C5
:1029100003F1E023C3F8002100BF70472DE9F05F09
:1029200080460D461646002704F0E8FA0746394669
:102930002A46334601F00700C0F1070ABAF1040F36
:1029400002D94FF0040A01E0C0F1070AD14600F1B4
:10295000040ABAF1070F02D24FF0000A01E0A0F119
:10296000030AD4464FF0010A0AFA09FAAAF1010A49
:102970000AEA020A0AFA0CFA4FF0010B0BFA0CFBF6
:10298000ABF1010B0BEA030B4AEA0B04214640466C
:1029900004F0BCFABDE8F09F00BF00F00702064B50
:1029A00019684FF6FF031940044B0B4343EA022119
:1029B000014B196000BF70470CED00E00000FA0504
:1029C00070B504460D460CB9012070BD584800682A
:1029D00000F00700A84209D255490D70084600686A
:1029E00000F00700A84201D00120EEE7207800F0B7
:1029F000020002281DD1207800F00400042805D12F
:102A00004C48006840F4E0504A490860207800F0E3
:102A10000800082805D14748006840F4604045494F
:102A200008604448006820F0F000A168084341496C
:102A30000860207800F00100A8B36068012807D181
:102A40003C4808380068C0F34040B8B90120BCE7F2
:102A50006068022802D06068032807D1354808382A
:102A60000068C0F3406048B90120AEE7314808383B
:102A70000068C0F3400008B90120A6E72D480068AF
:102A800020F00300616808432A490860FFF7B8FB9B
:102A9000064609E0FFF7B4FB801B41F2883188420B
:102AA00002D9032091E707E02248006800F00C00FB
:102AB0006168B0EB810FEDD11D48006800F00700A0
:102AC000A84209D91A490D700846006800F00700AD
:102AD000A84201D0012078E7207800F00400042803
:102AE00007D11448006820F4E050E1680843114918
:102AF0000860207800F00800082808D10D48006818
:102B000020F46040216940EAC1000A49086000F0F1
:102B100061F808490968C1F30311074A515CC840CC
:102B20000649086006480068FFF76EFE00204CE783
:102B3000003C02400838024002A60008B80000200D
:102B4000B00000200F2202600D4A126802F003025A
:102B500042600B4A126802F0F0028260084A126872
:102B600002F4E052C260064A126802F46042D208DF
:102B70000261044A126802F007020A60704700000E
:102B800008380240003C02400148006870470000DD
:102B9000B800002000B5FFF7F7FF04490968C1F34A
:102BA0008221034A515CC84000BD00000838024041
:102BB00012A6000800B5FFF7E7FF04490968C1F352
:102BC0004231034A515CC84000BD00000838024051
:102BD00012A600082DE9F047002400250026A14692
:102BE0002548006800F00C0020B1042805D0082812
:102BF0003AD105E0DFF8849039E0DFF8849036E0E0
:102C00001D48001F006800F03F041B48001F0068BB
:102C100000F4800078B11A481749091F0968C1F308
:102C20008811A0FB01700146224600233846FDF7BB
:102C300047FB05460EE011480F49091F0968C1F31B
:102C40008811A0FB01700146224600233846FDF79B
:102C500037FB05460848001F0068C0F30140401CD0
:102C60004600B5FBF6F902E0DFF8109000BF00BFA8
:102C70004846BDE8F0870000083802400024F40010
:102C800040787D01F8B504460CB90120F8BD2078E4
:102C900000F00100002874D0F748006800F00C0034
:102CA00004280DD0F448006800F00C00082813D167
:102CB000F148001F006800F48000B0F5800F0BD1D0
:102CC000ED4808380068C0F34040002859D06068DB
:102CD000002856D10120D9E700BF6068B0F5803FD9
:102CE00008D1E5480838006840F48030E2490839E6
:102CF00008601EE06068B0F5A02F0DD1DE480838EE
:102D0000006840F48020DC49083908600846006803
:102D100040F4803008600CE0D7480838006820F4A0
:102D20008030D549083908600846006820F48020C2
:102D3000086000BF606890B1FFF762FA054606E0E0
:102D4000FFF75EFA401B642801D903209EE7CA48BA
:102D500008380068C0F340400028F1D011E0FFF7C8
:102D60004FFA054606E0FFF74BFA401B642801D9ED
:102D700003208BE7C04808380068C0F340400028B3
:102D8000F1D1207800F0020002285FD1BA48006833
:102D900000F00C0058B1B848006800F00C0008289A
:102DA0001CD1B548001F006800F48000B0B9B248DB
:102DB00008380068C0F3400020B1E068012801D065
:102DC000012063E7AC480838006820F0F80021696A
:102DD00040EAC100A8490839086037E0E06800B35C
:102DE0000120A6490860FFF70BFA054606E0FFF749
:102DF00007FA401B022801D9032047E79E480838FC
:102E00000068C0F340000028F1D09B4808380068F3
:102E100020F0F800216940EAC100974908390860AC
:102E200014E0002095490860FFF7EAF9054606E03E
:102E3000FFF7E6F9401B022801D9032026E78E4858
:102E400008380068C0F340000028F1D1207800F075
:102E5000080008282CD16069A8B1012088490860C1
:102E6000FFF7CEF9054606E0FFF7CAF9401B022836
:102E700001D903200AE780486C300068C0F34000A5
:102E80000028F1D014E000207D490860FFF7B8F970
:102E9000054606E0FFF7B4F9401B022801D90320DC
:102EA000F4E675486C300068C0F340000028F1D1AA
:102EB000207800F00400042870D100276E483830D4
:102EC000006800F0805090B900BF002000906A4870
:102ED0003830006840F08050674938310860084653
:102EE000006800F08050009000BF00BF01276548D7
:102EF000006800F48070B0B96248006840F48070E7
:102F000060490860FFF77CF9054606E0FFF778F9AD
:102F1000401B022801D90320B8E65A48006800F493
:102F200080700028F2D000BFA068012808D1524864
:102F30006830006840F001004F49683108601DE0CA
:102F4000A06805280DD14C486830006840F00400A6
:102F50004949683108600846006840F0010008608F
:102F60000CE045486830006820F0010042496831B3
:102F700008600846006820F00400086000BFA068F0
:102F8000A8B1FFF73DF9054609E0FFF739F9401B05
:102F900041F28831884202D9032077E626E036489C
:102FA00068300068C0F340000028EED013E0FFF75F
:102FB00027F9054608E0FFF723F9401B41F2883165
:102FC000884201D9032061E62B4868300068C0F3CD
:102FD00040000028EFD1012F07D127483830006882
:102FE00020F0805024493831086000BFA0690028D3
:102FF00050D02148006800F00C00082860D0A0697B
:10300000022848D100201D490866FFF7F9F8054657
:1030100006E0FFF7F5F8401B022801D9032035E64A
:10302000154808380068C0F340600028F1D1D4E9A1
:1030300007010843616A40EA81110122A06AC2EBDC
:10304000500041EA00412C20005D41EA006130203F
:10305000005D41EA00700849091F08600120074926
:103060000866FFF7CDF805460EE0FFF7C9F8401BEC
:10307000022809D9032009E6083802400000474227
:10308000800E47420070004028480068C0F340604E
:103090000028EAD048E0002025490866FFF7B0F88C
:1030A000054606E0FFF7ACF8401B022801D90320D3
:1030B000ECE51E480068C0F340600028F2D133E020
:1030C000A069012800D1E1E51848001D0668A06943
:1030D000012827D006F48001E069814222D106F060
:1030E0003F01206A81421DD147F6C0703040616ABD
:1030F000B0EB811F16D106F440310122A06AC2EB69
:103100005000B1EB004F0DD106F070612C20005D36
:10311000B1EB006F06D106F0E0413020005DB1EB6D
:10312000007F01D00120B1E50020AFE5003802406A
:103130000000474270470000F8B504462068466822
:1031400020688568C5F3801048B905F0010030B1EA
:10315000C6F3801018B12046216C8847F8BDC5F32E
:10316000400030B1C6F3C01018B12046616C8847EA
:10317000F4E7C5F3401030B9C5F3801018B9C5F3B2
:10318000002000287CD0C6F3401000287DD0C5F375
:103190008010F0B194F8510003280ED0606D40F01B
:1031A0000400606500BF002000902068C0680090A7
:1031B00020688068009000BF0BE000BF00200090F6
:1031C0002068C068009020688068009000BF00BF41
:1031D000C4E7C5F3401088B1606D40F00100606540
:1031E00000BF002000902068806800902068006880
:1031F00020F040002168086000BF00BFC5F3002038
:1032000058B1606D40F00800606500BF002000907C
:1032100020688068009000BF00BF606D78B32068B0
:10322000406820F0E00021684860012084F85100E7
:1032300006F00200022802D006F0010008B3206860
:10324000406820F0030021684860E06C50B11048ED
:10325000E16C0865E06CFEF7D1FC18B1606D40F0E0
:1032600040006065A06C50B10948A16C0865A06C75
:10327000FEF7C4FC18B1606D40F04000606503E0EB
:1032800003E02046FFF756FF68E700BF66E700004F
:10329000F55D000810B504460CB9012010BD606A48
:1032A00038B96068B0F5827F00D105E00021E161A6
:1032B00002E00021216161610021A16294F85100C6
:1032C00028B9002084F85000204600F047F802207A
:1032D00084F851002068006820F0400021680860F0
:1032E000A08800F48270218901F404410843A18977
:1032F00001F400610843217C01F002010843217DB3
:1033000001F001010843218B01F400710843217F82
:1033100001F0380108432021095D01F080010843D4
:10332000218D01F400510843216808600421A0693F
:1033300001EA104094F8241001F0100108432168BC
:1033400048602068C06920F400602168C8610020DE
:103350006065012084F8510000209FE710B586B019
:103360000446142101A8FCF7F5FF1F492068884294
:1033700038D100BF002000901C48006840F4804015
:103380001A4908600846006800F48040009000BFB9
:1033900000BF00BF0020009014481038006840F0C3
:1033A00002001249103908600846006800F0020067
:1033B000009000BF00BF4FF46040019002200290D7
:1033C00000200390032004900520059001A90848DF
:1033D000FEF720FE002205212420FFF79FFA24207B
:1033E000FFF78CFA06B010BD0038004040380240AC
:1033F000000402402DE9FF5F0446884691461D46C1
:103400000E9E012002900020019000BF94F8500011
:10341000012803D1022004B0BDE8F09F012084F808
:10342000500000BFFEF7ECFE074694F851B060680C
:103430000390AA46BBF1010F0BD00398B0F5827F31
:1034400004D1A06810B9BBF1040F02D00220019092
:10345000DBE0B8F1000F03D0B9F1000F00D015B9CF
:1034600001200190D1E094F85100042802D00520F9
:1034700084F8510000206065C4F83890E587A5877E
:10348000C4F83080E586A586206460642068006802
:1034900000F04000402805D02068006840F040005F
:1034A00021680860E068B0F5006F4AD1606810B12B
:1034B000BAF1010F09D1206B00882168C860206B28
:1034C000801C2063E08E401EE08633E02068806828
:1034D00000F00200022810D1E08E70B1029801289D
:1034E0000BD1206B00882168C860206B801C206392
:1034F000E08E401EE086002002902068806800F088
:10350000010068B1E08F58B12068C068A16B0880E5
:10351000A06B801CA063E08F401EE087012002901A
:10352000FEF76EFEC01BB04204D3701C10B1032026
:1035300001906AE0E08E0028C8D1E08F0028C5D154
:103540004AE0606810B1BAF1010F09D1206B007830
:1035500021680873206B401C2063E08E401EE086CB
:1035600034E02068806800F00200022810D1E08E6C
:1035700070B1029801280BD1206B00782168087384
:10358000206B401C2063E08E401EE08600200290ED
:103590002068806800F0010068B1E08F58B12068B1
:1035A000C068A16B0870A06B401CA063E08F401E38
:1035B000E08701200290FEF723FEC01BB04201D33A
:1035C000701C00B916B9032001901EE0E08E00289F
:1035D000C7D1E08F0028C4D13A463146204602F0D8
:1035E00013FC20B101200190202060650DE0A0684F
:1035F00050B900BF002000902068C068009020688B
:103600008068009000BF00BF00BF012084F8510017
:1036100000BF002084F8500000BF0198FBE670470F
:10362000704710B50346002200BF93F83C00012804
:1036300001D1022010BD012083F83C0000BF22F020
:10364000FF00CC6840EA040222F440708C6840EA33
:10365000040222F480604C6840EA040222F4006014
:103660000C6840EA040222F480500C6940EA04022B
:1036700022F400504C6940EA040222F48040CC69F4
:1036800040EA04021868426400BF002083F83C004E
:1036900000BF00BFCEE7000030B502460B4600BFBA
:1036A00092F83C00012801D1022030BD012082F8AF
:1036B0003C0000BF022082F83D001068446810689A
:1036C000816824F070041868044310684460184D41
:1036D0001068A8421BD01068B0F1804F17D0154D6C
:1036E0001068A84213D0144D1068A8420FD0134D93
:1036F0001068A8420BD0124D1068A84207D0114D97
:103700001068A84203D0104D1068A84205D121F0DE
:1037100080015868014310688160012082F83D00F3
:1037200000BF002082F83C0000BF00BFBDE70000E2
:10373000000001400004004000080040000C004070
:1037400000040140004001400018004010B504464C
:103750000CB9012010BD94F83D0028B9002084F870
:103760003C00204600F026F8022084F83D00211D90
:10377000206802F0ADFC012084F8460000BF84F808
:103780003E0001213F2001554020015541200155B7
:1037900000BF00BF012084F84200432001554420AF
:1037A00001554520015500BF012084F83D0000204F
:1037B000D0E7000038B504461C492068884218D17B
:1037C00000BF002000901A48006840F0020018492D
:1037D00008600846006800F00200009000BF00BFCB
:1037E000002206211D20FFF799F81D20FFF786F81B
:1037F0001BE010492068884217D100BF00200090CC
:103800000B48006840F080000949086008460068DD
:1038100000F08000009000BF00BF002205212C2096
:10382000FFF77CF82C20FFF769F838BD0004004052
:1038300040380240001C0040014691F83D0001283C
:1038400001D001207047022081F83D000868C0685F
:1038500040F001000B68D8601A4B086898421BD0F2
:103860000868B0F1804F17D0174B0868984213D002
:10387000164B086898420FD0154B086898420BD039
:10388000144B0868984207D0134B0868984203D03D
:10389000124B086898420CD10868806800F0070253
:1038A000062A0CD00868006840F001000B68186018
:1038B00005E00868006840F001000B68186000200F
:1038C000C0E7000000000140000400400008004084
:1038D000000C00400004014000400140001800407E
:1038E0002DE9F04104460D46002700BF94F83C0046
:1038F000012802D10220BDE8F081012084F83C00BB
:1039000000BF022084F83D002068866826F0770614
:1039100026F47F46206886602868502833D00CDC67
:10392000202850D004DC00284BD0102851D149E089
:10393000302849D040284CD139E060282DD070285B
:1039400007D0B0F5805F03D0B0F5005F41D10DE046
:1039500041E0D5E902136A68206802F025FC20687E
:10396000866846F077062068866034E0D5E9021361
:103970006A68206802F018FC2068806840F4804083
:103980002168886027E0EA686968206802F0FCFC2A
:103990005021206802F013FC1DE0EA686968206885
:1039A00002F005FD6021206802F009FC13E0EA68DE
:1039B0006968206802F0E8FC4021206802F0FFFB03
:1039C00009E000BF00BF00BF2968206802F0F7FBD4
:1039D00001E0012700BF00BF012084F83D0000BFC7
:1039E000002084F83C0000BF384684E72DE9F04110
:1039F00004460D4614B90120BDE8F08194F83D005D
:103A000028B9002084F83C00204600F053F802203A
:103A100084F83D002068806844F2070188432168EB
:103A20008860211D206802F053FB2068D0F80880D0
:103A3000206886692068076A286840EA080840F21A
:103A400003308643A969A86840EA0120064340F68E
:103A50000C4086434FF2F0008643E969E86840EA8B
:103A60000120064328690001296A40EA0130064323
:103A700027F0220727F088076969686840EA011083
:103A800007432068C0F808802068866120680762C4
:103A9000012084F8460084F83E0001213F200155B2
:103AA000012084F8420043200155012084F83D00A4
:103AB0000020A1E710B586B00446142101A8FCF748
:103AC00049FC2068B0F1804F37D100BF0020009042
:103AD0001B48006840F0010019490860084600686A
:103AE00000F00100009000BF00BF00BF0020009068
:103AF00013481038006840F001001149103908607F
:103B00000846006800F00100009000BF00BF0320DD
:103B100001900220029001200390002004900120D7
:103B2000059001A90748FEF775FA002205211C201F
:103B3000FEF7F4FE1C20FEF7E1FE06B010BD00000B
:103B40004038024000000240704710B5044620682B
:103B50000069C0F34000D8B12068C068C0F34000DD
:103B6000B0B16FF002002168086101202077206861
:103B7000806900F0030018B12046FFF7E5FF05E07B
:103B8000204600F0DFF8204600F0CEF90020207734
:103B900020680069C0F38000D8B12068C068C0F315
:103BA0008000B0B16FF00400216808610220207726
:103BB0002068806900F4407018B12046FFF7C4FF08
:103BC00005E0204600F0BEF8204600F0ADF90020E8
:103BD000207720680069C0F3C000D8B12068C068B1
:103BE000C0F3C000B0B16FF0080021680861042084
:103BF00020772068C06900F0030018B12046FFF765
:103C0000A3FF05E0204600F09DF8204600F08CF967
:103C10000020207720680069C0F30010D8B1206828
:103C2000C068C0F30010B0B16FF0100021680861E7
:103C3000082020772068C06900F4407018B1204641
:103C4000FFF782FF05E0204600F07CF8204600F0F8
:103C50006BF9002020772068006900F0010058B15E
:103C60002068C06800F0010030B16FF001002168E9
:103C70000861204600F05AF920680069C0F3C010BE
:103C800058B12068C068C0F3C01030B16FF0800038
:103C9000216808612046FFF7C2FC20680069C0F374
:103CA000801058B12068C068C0F3801030B16FF048
:103CB000400021680861204600F050F92068006942
:103CC000C0F3401058B12068C068C0F3401030B154
:103CD0006FF02000216808612046FFF7A1FC10BDAD
:103CE00010B586B00446142101A8FCF733FB124935
:103CF000206888421DD100BF002000900F48006856
:103D000040F004000D4908600846006800F0040017
:103D1000009000BF00BF40200190022002900020D0
:103D20000390022004900320059001A90448FEF7A7
:103D300071F906B010BD00000004014030380240A7
:103D40000008024070472DE9F04104460D46164632
:103D5000002700BF94F83C00012802D10220BDE8F2
:103D6000F081012084F83C0000BF36B1042E1BD046
:103D7000082E31D00C2E5ED145E02946206802F095
:103D800027FA2068806940F008002168886120686F
:103D9000806920F0040021688861206880692969B1
:103DA00008432168886148E02946206802F048FA03
:103DB0002068806940F4006021688861206880691B
:103DC00020F480602168886120688069296940EA60
:103DD00001202168886130E02946206802F06EFAEF
:103DE0002068C06940F008002168C8612068C06987
:103DF00020F004002168C8612068C069296908436F
:103E00002168C86119E02946206802F093FA206809
:103E1000C06940F400602168C8612068C06920F46E
:103E200080602168C8612068C069296940EA012072
:103E30002168C86101E0012700BF00BF00BF00206A
:103E400084F83C0000BF384689E710B504460CB939
:103E5000012010BD94F83D0028B9002084F83C00F2
:103E6000204600F025F8022084F83D00211D20683E
:103E700002F02EF9012084F8460000BF84F83E00CD
:103E800001213F200155402001554120015500BF2F
:103E900000BF012084F84200432001554420015511
:103EA0004520015500BF012084F83D000020D0E7E7
:103EB00038B504461A49206888422FD100BF002037
:103EC00000901848006840F0020016490860084653
:103ED000006800F00200009000BF00BF0022052132
:103EE0002B20FEF71BFD2B20FEF708FD00220521ED
:103EF0002C20FEF713FD2C20FEF700FD00220521EB
:103F00002D20FEF70BFD2D20FEF7F8FC00220521E9
:103F10002E20FEF703FD2E20FEF7F0FC38BD00003A
:103F200000040140443802407047000010B50446C8
:103F300007492068884201D1FEF73CFC054920680A
:103F4000884204D104480068401C0349086010BD41
:103F50000000014000040040480000207047F8B510
:103F600004460E46174694F83E00202836D106B186
:103F70000FB90120F8BD00BF94F83C00012801D121
:103F80000220F7E7012084F83C0000BF20633A4696
:103F90003146204602F094FC0546EDB9206B01281D
:103FA00019D100BF002000902068006800902068B0
:103FB0004068009000BF00BF00BF00BF21680C3107
:103FC00051E8001F41F0100021680C3141E8000267
:103FD000002AF3D100E001252846CBE70220C9E7FB
:103FE00070B504460E460B492068884210D10A4835
:103FF00000684068C0F11400C5B2002301220749DF
:104000000748006803F052FB29460448FCF7A2F970
:1040100070BD0000001001407406002080030020E5
:10402000A4000020704700002DE9F84F04462068E6
:1040300005682068C668206847694FF00009CA46CD
:1040400005F00F09B9F1000F0AD105F0200038B1D1
:1040500006F0200020B1204602F0A0FABDE8F88F5B
:10406000B9F1000F7CD007F0010018B906F4907088
:10407000002875D005F0010030B106F4807018B149
:10408000206C40F00100206405F0040030B107F01E
:10409000010018B1206C40F00200206405F002001D
:1040A00030B107F0010018B1206C40F0040020642A
:1040B00005F0080048B106F0200010B907F0010033
:1040C00018B1206C40F008002064206C002846D015
:1040D00005F0200028B106F0200010B1204602F0C3
:1040E0005DFA20684069C0F3801A206C00F0080077
:1040F00010B9BAF1000F2DD0204602F0F6F9206871
:10410000406900F04000402820D100BF00BF216876
:10411000143151E8001F21F040002168143141E8BA
:104120000002002AF3D100BFA06B50B17548A16B0B
:104130000865A06BFDF762FD88B1A06B016D884733
:104140000DE02046FFF76EFF09E009E02046FFF78B
:1041500069FF04E02046FFF765FF002020647DE74B
:10416000206B012876D105F01000002872D006F0EF
:1041700010000028FAD000BF0020009020680068DE
:10418000009020684068009000BF00BF2068406930
:1041900000F0400040285ED1A06B006840681FFA24
:1041A00080F8B8F1000F54D0A08D404551DDA4F83F
:1041B0002E80A06BC069B0F5807F43D000BF00BFE8
:1041C00021680C3151E8001F21F4807021680C3106
:1041D00041E80002002AF3D100BF00BF00BF216800
:1041E000143151E8001F21F001002168143141E829
:1041F0000002002AF3D100BF00BF00BF21681431C4
:1042000051E8001F21F040002168143141E800020C
:10421000002AF3D100BF202084F83E000020206354
:1042200000BF00BF21680C3151E8001F21F01000D1
:1042300021680C3141E80002002AF3D100BFA06BD5
:10424000FDF786FCA08DE28D801A81B22046FFF733
:10425000C7FE03E740E0A08DE18D401A1FFA80F809
:10426000E08DC0B3B8F1000F35D000BF00BF2168AA
:104270000C3151E8001F21F4907021680C3141E8A5
:104280000002002AF3D100BF00BF00BF2168143133
:1042900051E8001F21F001002168143141E80002BB
:1042A000002AF3D100BF202084F83E0000202063C4
:1042B00000BF00BF21680C3151E8001F21F0100041
:1042C00021680C3141E80002002AF3D100BF4146C9
:1042D0002046FFF785FEC1E605F0800030B106F00C
:1042E000800018B1204602F074FBB7E605F04000EC
:1042F00030B106F0400018B1204602F02CF9ADE6CE
:1043000000BFABE6D763000810B504460CB9012026
:1043100010BDA06900B100E000BF94F83D0028B9CD
:10432000002084F83C00204600F028F8242084F87F
:104330003D002068C06820F400502168C860204615
:1043400002F0A8F92068006920F490402168086113
:104350002068406920F02A00216848612068C06810
:1043600040F400502168C86000202064202084F8B8
:104370003D0084F83E000020CAE7000010B586B07A
:104380000446142101A8FBF7E5FF5E492068884236
:1043900076D100BF002000905B48006840F010001C
:1043A000594908600846006800F01000009000BFFE
:1043B00000BF00BF0020009053481438006840F050
:1043C00001005149143908600846006800F00100F6
:1043D000009000BF00BF4FF4C06001900220029027
:1043E00000200390032004900720059001A947486E
:1043F000FDF710FE4648474908604FF000604860EE
:10440000002144488160C1604FF480610161002156
:1044100041618161C16101624162FDF727FD08B11F
:10442000FDF7E2FA00BF3B48A063846300BF384851
:104430007830394908604FF00060486040213648C4
:1044400081600021C1604FF4806101610021416100
:104450008161C16101624162FDF708FD08B1FDF7AC
:10446000C3FA00BF2C486063846300BF00220521AB
:104470002520FEF753FA2520FEF740FA3FE0FFE73C
:104480002649206888423AD100BF002000901E488B
:10449000001F006840F480201B49091F086008467F
:1044A000006800F48020009000BF00BF00BF002023
:1044B000009015481438006840F00400124914397F
:1044C00008600846006800F00400009000BF00BFCC
:1044D0004FF44060019002200290002003900320DE
:1044E00004900720059001A90D48FDF793FD0022D7
:1044F00005212720FEF712FA2720FEF7FFF906B064
:1045000010BD00000010014044380240000002408D
:104510004064024074060020D40600200048004099
:104520000008024070B504460D46164694F83E0059
:10453000202816D105B10EB9012070BD00BF94F836
:104540003C00012801D10220F7E7012084F83C005B
:1045500000BF0020206332462946204602F014FAAC
:10456000EBE70220E9E7000010B5044606492068A1
:10457000884208D10549087804F0A6FF01220349C2
:104580000348FFF7CFFF10BD004400407D0100202D
:10459000300600202DE9F84F04460E46174699468E
:1045A0004FF0000A94F83D0020285AD106B117B9FF
:1045B0000120BDE8F88F00BF94F83C00012801D12C
:1045C0000220F6E7012084F83C0000BF00202064B0
:1045D000212084F83D00FDF713FE8246A784E7847E
:1045E000A068B0F5805F04D1206910B90025B046FD
:1045F00002E035464FF0000800BF002084F83C0080
:1046000000BF1BE05346002280212046CDF80090D9
:1046100002F00FFA08B10320CBE745B9B8F8000063
:10462000C0F308002168486008F1020803E0287818
:10463000216848606D1CE08C401EE084E08C0028FE
:10464000E0D15346002240212046CDF8009002F0F0
:10465000F0F908B10320ACE7202084F83D000020E9
:10466000A7E70220A5E7704700BFFEE710B50248A4
:10467000FDF7CEFD10BD00001404002010B5024867
:10468000FDF730FE10BD000014040020C16AB1F532
:104690002A0F02D10121C16205E0C16AB1F12A4F9E
:1046A00001D10821C1627047F8B50546002000908D
:1046B000AC6B94F83D60394800681921B0FBF1F00B
:1046C0004FF47A71B0FBF1F0C0EBC00000EB80005A
:1046D000009000BF009820B9206C40F020002064BA
:1046E00009E00098401E00902068006800F4007007
:1046F000B0F5007FEED000BF606B10B10020616BA1
:10470000C863A06B10B10020A16BC863206800686B
:1047100020F480602168086000206085606B10B123
:104720000020616B0865A06B10B10020A16B0865CB
:104730002068006820F001002168086094F83D00BE
:1047400060280AD1202084F83D00002084F83E0033
:1047500020642046FDF75AFD1EE006F028002828B8
:1047600011D12068006840F00100216808602068CD
:10477000006840F4806021680860002020632820E1
:1047800084F83D0005E0202084F83D00002084F8F6
:104790003E002046FDF793FEF8BD0000B800002063
:1047A0002DE9F041044694F83D6094F83E70102FD6
:1047B00001D0402F07D1222E05D12068006820F4B7
:1047C00000602168086006F02800282805D1002034
:1047D0002063282084F83D0010E02068406800F441
:1047E0000060B0F5006F07D0602E05D0202084F85F
:1047F0003D00002084F83E000020206320684068CF
:1048000000F40060B0F5006F40D12068406820F4EB
:10481000006021684860606B90F83500012814D072
:104820004848616B0865606BFDF7E8F900285BD0CC
:104830002068006820F0010021680860202084F8CA
:104840003D00606B016D88474EE03E48A16B0865F6
:10485000A06BFDF7D3F9002846D020684069C0F36B
:10486000801030B120680069616A0870606A401C7D
:1048700060622068006820F0010021680860202044
:1048800084F83D00A06B016D88472DE094F83D0051
:1048900060281AD1202084F83D0000202064206880
:1048A0004069C0F3801030B120680069616A087007
:1048B000606A401C60622068006820F00100216886
:1048C00008602046FDF7A2FC0EE020684069C0F3B6
:1048D000801030B120680069616A0870606A401C0D
:1048E00060622046FDF7EBFD256C05F0010058B92C
:1048F00005F00200022807D005F00400042803D0C8
:1049000005F00800082805D12068406820F4E06020
:104910002168486094F83D60206C00F00400042891
:104920000ED1282E0CD10848E06200202063202000
:1049300084F83D00002084F83E002046FDF7A8FEE4
:10494000BDE8F081A94600080000FFFF70B50446ED
:10495000E56A608D042810D12068406820F48060EA
:104960002168486020680069616A0870606A401CBC
:104970006062608D401E60857AE0608D03281AD1E8
:104980002068406820F4806021684860042D07D0CA
:10499000022D05D02068006820F48060216808603E
:1049A00020680069616A0870606A401C6062608DFE
:1049B000401E60855CE0608D02284FD1012D01D042
:1049C000102D06D12068006820F4806021680860FE
:1049D00012E0042D01D0022D06D12068006840F4B9
:1049E00080602168086007E0102D05D0206800680D
:1049F00040F400702168086020680069616A0870EE
:104A0000606A401C6062608D401E6085206800699D
:104A1000616A0870606A401C6062608D401E60853B
:104A20002068406820F4407021684860202084F8A5
:104A30003D0094F83E00402807D1002084F83E0055
:104A400020632046FDF727FE12E0002084F83E0098
:104A5000122020632046FDF71CFE09E02068006953
:104A6000616A0870606A401C6062608D401E6085EB
:104A700070BD70B5044694F83D00222870D1658D54
:104A8000032D13D920680069616A0870606A401CB0
:104A90006062608D401E6085608D03285FD1206854
:104AA000406820F480602168486058E0E06A02288D
:104AB0004FD0012D01D0002D4BD1204600F0B2FC8B
:104AC00068BB2068006820F4806021680860206866
:104AD000406820F4E0602168486020680069616AED
:104AE0000870606A401C6062608D401E60852020F6
:104AF00084F83D0094F83E00402807D1002084F857
:104B00003E0020632046FDF7C6FD28E0002084F823
:104B10003E00122020632046FDF7BBFD1FE0206809
:104B2000406820F4E0602168486020680069616A9C
:104B30000870606A401C6062608D401E60852020A5
:104B400084F83D00002084F83E002046FDF7B7FCC5
:104B500005E02068406820F480602168486000BF5C
:104B600070BD70B50446E56A94F83D00212847D130
:104B7000608D50B1606A007821680861606A401CED
:104B80006062608D401E60853AE0082D16D0202DB1
:104B900014D015F5803F11D02068406820F4E06003
:104BA0002168486011202063002084F83E00202006
:104BB00084F83D002046FDF76DFD21E02068406847
:104BC00020F4E060216848602068006840F40070CC
:104BD0002168086000202063202084F83D0094F8BC
:104BE0003E00402806D1002084F83E002046FDF714
:104BF00053FD05E0002084F83E002046FDF74AFD05
:104C000070BD2DE9F041044694F83D5094F83E7093
:104C1000E66A208DB0BB212D3CD1082E16D0202E67
:104C200014D016F5803F11D02068406820F4E06071
:104C30002168486011202063002084F83E00202075
:104C400084F83D002046FDF725FD44E020684068DB
:104C500020F4E060216848602068006840F400703B
:104C60002168086000202063202084F83D0094F82B
:104C70003E00402807D1002084F83E002046FDF782
:104C80000BFD28E006E0002084F83E002046FDF7FA
:104C900001FD20E0212D03D0402F1CD1222D1AD15F
:104CA000608D30B92068406820F4806021684860D9
:104CB00011E094F83E00402803D1204600F0A5F909
:104CC00009E0606A007821680861606A401C6062DF
:104CD000608D401E6085BDE8F081416CC9B20268FC
:104CE0001161416B11B1416BC96B21B9816B41B14C
:104CF000816BC96B29B10168496841F400610268A0
:104D00005160704738B590F83E20C16A036B90F847
:104D10003D40222C73D1046D64B9402A0AD100BFF2
:104D2000002400940468646900940468A4690094F1
:104D300000BF1AE1046DC4B90469B4F5404F14D141
:104D400000BF002400940468646900940468A469A6
:104D5000009400BF00BF0468246844F480740568B0
:104D60002C60046D641C0465FFE0448D8CB900BFA9
:104D7000002400940468646900940468A4690094A1
:104D800000BF00BF0468246844F4007405682C6008
:104D9000DDE0448D012C72D111F5803F30D10468E3
:104DA000246824F4806405682C600468646804F452
:104DB0000064B4F5006F10D10468246824F48064A2
:104DC00005682C6000BF00240094046864690094A6
:104DD0000468A469009400BFB9E000BF00240094F7
:104DE0000468646900940468A469009400BF00BF6B
:104DF0000468246844F4007405682C60A7E0A9E006
:104E0000082923D0202921D0122B01D101291DD11D
:104E100004290AD0022908D0102906D00468246881
:104E200024F4806405682C6005E00468246844F478
:104E3000806405682C6000BF0024009404686469E5
:104E400000940468A469009400BF80E004682468AA
:104E500024F4806405682C6000BF0024009404687A
:104E6000646900940468A469009400BF00BF0468EA
:104E7000246844F4007405682C6068E0FFE7448D02
:104E8000022C3BD1042910D002290ED010290CD0BD
:104E90000468246824F4806405682C60046824682D
:104EA00044F4006405682C6005E00468246844F458
:104EB000806405682C600468646804F40064B4F5D8
:104EC000006F10D111F5803F07D0012905D00829C6
:104ED00003D0102901D0202905D10468646844F466
:104EE000805405686C6000BF002400940468646905
:104EF00000940468A469009400BF28E00468246852
:104F000044F4806405682C600468646804F40064F8
:104F1000B4F5006F10D111F5803F07D0012905D0FD
:104F2000082903D0102901D0202905D1046864681C
:104F300044F4805405686C6000BF00240094046849
:104F4000646900940468A469009400BF00BF002451
:104F500004650AE000BF00240094046864690094BA
:104F60000468A469009400BF00BF38BD90F83E10EB
:104F700040290ED1016D29B9416C01F0FE01026892
:104F8000116141E0416CC9B241F001010268116157
:104F90003AE00169B1F5804F20D190F83D10212908
:104FA00005D1416C01F0FE010268116105E0416C20
:104FB000C9B241F0010102681161416B11B1416B4D
:104FC000C96B21B9816BF9B1816BC96BE1B1016822
:104FD000496841F400610268516015E0016D41B912
:104FE000416C01F44071F02242EAE1110268116162
:104FF0000AE0016D012907D1416C01F44071F122F1
:1050000042EAE11102681161704770B5044694F8F4
:105010003D50206D98B9E06C012807D1A06CC0B25A
:1050200021680861206D801C20654CE0A06CC0F3F5
:10503000072021680861206D401C206543E0206D39
:10504000012807D1A06CC0B221680861206D401C06
:10505000206538E0206D022835D1222D09D1206845
:10506000006840F4807021680860206D401C206555
:1050700029E0608D60B1212D0AD1606A0078216835
:105080000861606A401C6062608D401E60851AE0A5
:10509000608DC0B9212D16D12068406820F4E060F1
:1050A000216848602068006840F40070216808604A
:1050B00000202063202084F83D00002084F83E007A
:1050C0002046FDF7E9FA70BD418D49B101680969D3
:1050D000426A1170416A491C4162418D491E4185F5
:1050E000704770B5044694F83D50608DD8B1206883
:1050F0000069616A0870606A401C6062608D401ED1
:105100006085608D78B92A2D0DD12068406820F423
:1051100080602168486022202063282084F83D00B8
:105120002046FDF70FFB70BD418D49B1416A0978FA
:1051300002681161416A491C4162418D491E4185E5
:10514000704770B5044694F83D50608DD8B1606AE0
:10515000007821680861606A401C6062608D401EB2
:105160006085608D78B9292D0DD12068406820F4C4
:1051700080602168486021202063282084F83D0059
:105180002046FDF7E0FA70BDF8B504460D4600274D
:1051900094F83D0000F0280028281CD120684068C1
:1051A00020F4806021684860C5F3800000B90127C1
:1051B000C5F3C01010B9A08986B201E0208B86B279
:1051C00000BF002084F83C0000BF3246394620462C
:1051D000FDF71DF80FE000BF002000902068406937
:1051E000009020688069009000BF00BF00BF0020D1
:1051F00084F83C0000BFF8BD70B5044694F83D50FB
:10520000E66A082E01D0202E1FD1282D1DD121485D
:10521000E0622068406820F4E060216848606FF434
:105220008060216848612068006820F480602168FF
:10523000086000202063202084F83D00002084F8CE
:105240003E002046FDF724FA23E0212D1DD1114810
:10525000E06221202063202084F83D00002084F8B3
:105260003E002068406820F4E060216848606FF4E8
:105270008060216848612068006820F480602168AF
:1052800008602046FDF75FFA03E06FF48060216854
:10529000486170BD0000FFFF38B5044694F83D50EA
:1052A0002068406820F4E0602168486000BF00206A
:1052B00000902068406900902068006840F001007C
:1052C0002168086000BF00BF2068006820F480608B
:1052D000216808602068406800F40060B0F5006F45
:1052E00042D1222D01D02A2D1FD1A06B0068406829
:1052F0006085608D18B1206C40F004002064206847
:10530000406820F4006021684860A06BFCF78AFCCC
:10531000012829D04148A16B0865A06BFCF76EFC01
:1053200010B3A06B016D88471EE0606B0068406899
:105330006085608D18B1206C40F004002064206806
:10534000406820F4006021684860606BFCF76AFCEC
:10535000012809D03148616B0865606BFCF74EFC91
:1053600010B1606B016D8847608D18B3206840698B
:10537000C0F3800048B120680069616A0870606A03
:10538000401C6062608D401E608520684069C0F3EB
:10539000801048B120680069616A0870606A401C2A
:1053A0006062608D401E6085608D18B1206C40F099
:1053B00004002064206C18B12046FFF7F1F92BE0BF
:1053C0002A2D07D100202063282084F83D002046A4
:1053D000FDF7B8F994F83D0028280DD11048E06297
:1053E00000202063202084F83D00002084F83E0047
:1053F0002046FDF74DF90FE0206B222801D0222D29
:105400000AD100202063202084F83D00002084F889
:105410003E002046FDF796F938BD0000A946000879
:105420000000FFFF08B5014600200090104800680A
:105430001922B0FBF2F04FF47A72B0FBF2F000EBFD
:105440008000009000BF0098401E0090009828B98E
:10545000086C40F020000864012008BD086800685E
:1054600000F40070B0F5007FEDD00020F5E70000FB
:10547000B800002000BF012002F034F8084800788E
:105480002828F8DA06480078401C054908700548C5
:10549000FDF789F947F2305002F024F8EBE70000FD
:1054A0005C0000206804002008B500BF00200090C8
:1054B0000E48006840F480000C4908600846006807
:1054C00000F48000009000BF00BF002205213A20B8
:1054D000FDF724FA3A20FDF711FA002205214620B3
:1054E000FDF71CFA4620FDF709FA08BD30380240E6
:1054F00010B5384A0121052002F08AF836490860C3
:10550000364A0021364802F013F936490860364A17
:105510000021364802F00CF935490860354A00216F
:10552000354802F005F935490860354A002135480B
:1055300002F0FEF834490860344A0021344802F091
:10554000F7F834490860344A0021344802F0F0F892
:1055500033490860334A0021334802F0E9F83349FF
:105560000860334A0021334802F0E2F8324908600B
:10557000324A0021324802F0DBF832490860324AF0
:105580000021324802F0D4F831490860314A002144
:10559000314802F0CDF831490860314A14210A201F
:1055A00002F036F82F4908602F4A0321052002F047
:1055B0002FF82E4908602E4A14210A2002F028F8FC
:1055C0002C4908602C4A1421084602F021F82B4986
:1055D000086010BDECA300086C000020A4A3000824
:1055E0004D5F000864000020C8A30008595F000850
:1055F0006800002004A40008F119000870000020D1
:1056000028A40008CD170008740000204CA400084E
:10561000CD0500087800002094A40008F16A000875
:1056200080000020B8A40008755400088400002001
:10563000DCA40008615B00088800002000A50008C9
:10564000815C00088C00002048A50008315B000840
:10565000940000206CA50008411A00089800002062
:1056600090A500089C000020A8A50008A00000202C
:10567000C0A50008A4000020D8A50008A8000020AC
:1056800000B587B0142102A8FAF764FE00BF00201D
:1056900001906648006840F0800064490860084650
:1056A000006800F08000019000BF00BF00BF002034
:1056B00001900846006840F0040008600846006851
:1056C00000F00400019000BF00BF00BF0020019067
:1056D0000846006840F0010008600846006800F0D5
:1056E0000100019000BF00BF00BF002001900846EC
:1056F000006840F0020008600846006800F0020000
:10570000019000BF00BF002240F292314848FCF7F0
:1057100071FD002240F684114648FCF76BFD002223
:1057200041F207414448FCF765FD0D2002904FF41B
:10573000041003900020049002A93D48FCF76AFC85
:1057400040F2023002900120039004900020059066
:1057500002A93748FCF75EFC40F6040002900120E5
:105760000390022004900020059002A93148FCF724
:1057700051FC702002904FF404100390002004901C
:1057800002A92C48FCF746FC4FF4C070029001209F
:10579000039000200490059002A92648FCF73AFCEB
:1057A000902002900120039000200490059002A90F
:1057B0001F48FCF72FFC202002900020039004904B
:1057C00002A91B48FCF726FC41F20140029001208F
:1057D000039004900020059002A91748FCF71AFCDA
:1057E000062002900120039000200490059002A959
:1057F0001148FCF70FFC002205210620FDF78EF86A
:105800000620FDF77BF8002205210820FDF786F829
:105810000820FDF773F8002205210920FDF77EF826
:105820000920FDF76BF807B000BD000030380240DA
:1058300000080240000002400004024010B50B487E
:105840000B4908600B484860002109488160C1602D
:105850004FF480410161002141618161C1610162B8
:10586000FCF72EFE08B1FCF7BFF810BD0054004055
:1058700014040020801A060010B507480749086084
:10588000062048604FF47A6104488160FCF75CFFB1
:1058900008B1FCF7A9F810BD0030004068040020F2
:1058A00010B50F480F4908604FF48270486000211E
:1058B0000C488160C16002210161012141614902FE
:1058C00081610821C16100210162416281620A2176
:1058D000C162FDF7DFFC08B1FCF786F810BD0000DF
:1058E000003800407404002010B5094809490860D8
:1058F000632048600021074881603121C160002198
:1059000001618161FDF722FF08B1FCF76DF810BD60
:10591000001C0040A405002000B58BB0242102A883
:10592000FAF718FD0020009001904FF080401949CF
:1059300008600020486000211648816044F620611C
:10594000C160002101618161032002900020039069
:10595000012004900020059006200690002007906A
:10596000012008900020099006200A9002A9094809
:10597000FEF73CF808B1FCF737F8002000900190E2
:1059800069460448FDF788FE08B1FCF72DF80BB016
:1059900000BD0000CC04002000B587B000200390BB
:1059A00004900590069001900290144814490860F4
:1059B000632048600021124881603121C1600021CC
:1059C000016180218161FDF7C1FE08B1FCF70CF88F
:1059D0004FF48050039003A90948FDF781FF08B1F7
:1059E000FCF702F800200190029001A90448FDF79D
:1059F00053FE08B1FBF7F8FF07B000BD00040040FC
:105A00001405002000B591B000200F9010901C21CB
:105A100008A8FAF79FFC20216846FAF79BFC244867
:105A20002449086063204860002122488160632186
:105A3000C16000210161416180218161FEF705FAA9
:105A400008B1FBF7D1FF00200F9010900FA9194863
:105A5000FDF722FE08B1FBF7C7FF602008900A207F
:105A6000099002200A9000200B900C900D900E904F
:105A7000002208A90F48FEF766F908B1FBF7B4FF4A
:105A80000020009001900290039004904FF4005089
:105A900005900020079069460648FDF7C2FD08B151
:105AA000FBF7A2FF0348FEF71BF911B000BD000091
:105AB000000401405C05002010B50B480B4908604C
:105AC0004FF461304860002108488160C160016185
:105AD0000C21416100218161C161FEF715FC08B113
