:020000040800F2
:10000000584500209D0200081B100008050F00083D
:1000100019100008A90300082913000800000000B7
:10002000000000000000000000000000DD010008EA
:10003000AB0300080000000039020008911100081D
:10004000B7020008B7020008B7020008B7020008AC
:10005000B7020008B7020008B7020008B70200089C
:10006000B7020008B7020008B7020008B70200088C
:10007000B7020008B7020008B7020008B70200087C
:10008000B7020008B7020008B7020008B70200086C
:10009000B7020008B7020008B7020008B70200085C
:1000A000B7020008B7020008B7020008B70200084C
:1000B00055120008B7020008B7020008B70200088E
:1000C000B7020008B7020008B7020008B70200082C
:1000D000B7020008B7020008B7020008B70200081C
:1000E000B7020008B7020008B7020008B70200080C
:1000F000B7020008B7020008B7020008B7020008FC
:1001000000000000B7020008B7020008B7020008AC
:100110000000000000000000B7020008B70200085D
:10012000B7020008B7020008B7020008B7020008CB
:10013000B7020008B7020008B7020008B7020008BB
:10014000B7020008B7020008B7020008B7020008AB
:10015000B7020008B7020008B7020008B70200089B
:10016000B7020008B702000800000000000000000D
:10017000000000000000000000000000000000007F
:10018000B7020008B70200080000000000000000ED
:10019000B7020008B70200080000000000000000DD
:1001A000000000000000000000000000000000004F
:1001B000B70200080000000000000000B7020008BD
:1001C000B7020008DFF810D000F0DCF80048004764
:1001D00017140008AFF30080584500202C4B196815
:1001E0000868B0E8F04F80F30988BFF36F8F4FF0D5
:1001F000000080F311887047000000000848006884
:10020000006880F308884FF0000080F3148862B61D
:1002100061B6BFF34F8FBFF36F8F00DF00BF00BF2A
:1002200008ED00E0DFF80C00016841F470010160A6
:10023000704700BF88ED00E0EFF30980BFF36F8FD8
:10024000134B1A681EF0100F08BF20ED108A20E92A
:10025000F04F106009B44FF0500080F31188BFF3E5
:100260004F8FBFF36F8F01F011F94FF0000080F353
:10027000118809BC19680868B0E8F04F1EF0100F2B
:1002800008BFB0EC108A80F30988BFF36F8F704706
:1002900010000020EFF305807047000006488047FB
:1002A00006480047FEE7FEE7FEE7FEE7FEE7FEE75B
:1002B000FEE7FEE7FEE7FEE745120008C50100087D
:1002C0002DE9F05F0546002092469B46884606468B
:1002D000814640241BE0284641464746224600F01E
:1002E00041F853465A46C01A914110D31146184658
:1002F000224600F028F82D1A67EB01084F462246E7
:100300000120002100F01FF817EB00094E41201ECC
:10031000A4F10104DFDC484631462A464346BDE8E5
:10032000F09FD2B201E000F8012B491EFBD27047CA
:100330000022F6E710B513460A4604461946FFF7B1
:10034000F0FF204610BD202A04DB203A00FA02F11B
:10035000002070479140C2F1200320FA03F31943B3
:1003600090407047202A04DB203A21FA02F0002155
:10037000704721FA02F3D040C2F1200291400843B5
:1003800019467047064C074D06E0E06840F001034F
:1003900094E8070098471034AC42F6D3FFF716FFF5
:1003A0001816000838160008FEE7704770B50446B6
:1003B00000F0EEF80546601C02D0044800780444C2
:1003C00000F0E6F8401BA042FAD370BD0000002008
:1003D0002DE9F84FDFF890A10022012403254FF00A
:1003E0000F090AF1040BAAF1040E00BF0B6804FA0E
:1003F00002F63340B3426ED10F7907F00307012FA5
:1004000001D0022F16D187684FEA420805FA08FC8E
:1004100027EA0C07D1F80CC00CFA08FC4CEA070CD0
:10042000C0F808C04768B7430E79C6F30016964077
:100430003E4346600E79F643B6070AD0C6684FEAD7
:10044000420C05FA0CF7BE438F6807FA0CF73743E6
:10045000C7600E7906F00306022E10D1D60800EB15
:100460008608D8F8206057074FEAD76C09FA0CF7CE
:10047000BE430F6907FA0CF73743C8F820700668C7
:100480004FEA420C05FA0CF7BE430F7907F0030759
:1004900007FA0CF7374307604E6816F4403F5CD00C
:1004A000324E376847F480473760366822F00307DA
:1004B00006F4804600962E4E07EB060CDCF8086822
:1004C00097074FEA177809FA08F7BE43294FB84251
:1004D00002D1002710E040E0274FB84201D10127A8
:1004E0000AE0264FB84201D1022705E0244FB84266
:1004F00001D1032700E0072707FA08F73743CCF8B4
:100500000878DAF800605746D1F804C09E435FEAE5
:10051000CC2C00D51E433E60DBF800605F46D1F86E
:1005200004C09E435FEA8C2C00D51E433E60DEF87B
:1005300000607746D1F804C09E435FEA8C3C00D54A
:100540001E433E60084F083F3E68D1F804C09E43FA
:100550005FEACC3C00D51E433E60521C102AFFF4DB
:1005600045AFBDE8F88F0000083C01404438024028
:100570000030014000000240000402400008024038
:10058000000C02400AB1816170470904FBE70000DA
:100590000148806870470000000000200248816820
:1005A0000278114481607047000000200B4810B5AC
:1005B000016841F400710160016841F480610160EB
:1005C000016841F480710160032000F09FF80F2062
:1005D00000F006F800F050F8002010BD003C02408A
:1005E00030B50546204887B00024016841F001017C
:1005F0000160006806A900F00100009001A800F069
:1006000031F90498B0B100F04DF9400017494FF0AE
:100610008042B0FBF1F11648491E026040F2E73219
:10062000C0E90324C0E90114846100F03FFB040029
:1006300003D015E000F036F9E8E70D4800F064FB60
:1006400004000DD11C2000F033F8102D07D2002239
:1006500029461C2000F03AF80648056000E0012415
:1006600007B0204630BD00004038024040420F0035
:100670004C000020040000200C4882B0016841F4C6
:1006800080410160006800F4804000900748001F2E
:10069000016841F0805101600068002200F0805044
:1006A00000900F21901E02B000F010B844380240B4
:1006B000002809DB00F01F02012191404009800061
:1006C00000F1E020C0F8001170470000F0B40E4BBC
:1006D0001B680C46C3F30223C3F10705042D00D9A0
:1006E0000425191D072901D2002300E0DB1E012685
:1006F00006FA05F1491E214099409E40761E16409B
:100700003143F0BC00F068BE0CED00E0064900F09B
:10071000070208684FF6FF03184040EA0220034A28
:1007200010430860704700000CED00E00000FA057F
:100730002DE9F0470E46050065D0DFF81481D8F8A2
:100740000000F7B200F00700B04207D288F800704E
:10075000D8F8000000F00700B04254D128683D4CA2
:10076000810712D5400703D5206840F4E05020608F
:100770002878000703D5206840F460402060206896
:10078000A96820F0F000084320602878C0072DD029
:10079000304968680839012812D0022813D003288C
:1007A00011D00968890700292DDA216821F0030199
:1007B00001432160FFF7ECFE814641F2883A0EE0EA
:1007C00009688903EFE709688901ECE7FFF7E0FEB4
:1007D000A0EB0901514502D90320BDE8F08720684C
:1007E000696800F00C00B0EB810FEFD1D8F8001071
:1007F000404601F00701B14207D90770006800F0D8
:100800000700B04201D00120E7E72878400705D56E
:100810002068E96820F4E050084320602878000749
:1008200006D52068296920F4604040EAC1002060B4
:1008300000F048F82168084AC1F30311515CC84030
:100840000649086006480068FFF7CAFE0020C4E7B2
:10085000003C024008380240001600080C0000204E
:10086000040000200F2202600C4A136803F0030307
:100870004360136803F0F0038360136803F4E053EC
:10088000C36012684FF4E05303EAD20202610448E5
:10089000006800F007000860704700000838024058
:1008A000003C02400448054900680968044AC1F355
:1008B0008221515CC84070470C000020083802407B
:1008C00010160008154810B5006810F00C02144806
:1008D00013D01449042A0FD0082A0ED10F4C241F1C
:1008E0002268236802F03F025B0207D52068C0F34C
:1008F0008810A0FB010106E0084610BD2168C1F385
:100900008811A1FB00010023FFF7DAFC2168C1F385
:100910000141491C4900B0FBF1F010BD083802400C
:100920000024F40040787D012DE9F84F04006ED0DA
:100930002078DFF86093C007A9F104054AD009F1D7
:1009400004000168C1F38101012908D00068C0F3E7
:10095000810002280AD1D9F80000400206D5286893
:10096000800337D560680028E1D033E06068B0F5D7
:10097000803F10D0B0F5A02F286810D020F4803030
:100980002860286820F4802028606068A8B1FFF7FC
:10099000FFFD06460DE0286840F48030F4E740F49F
:1009A00080202860F7E700BFFFF7F2FD801B642876
:1009B00073D828688003F7D50CE0FFF7E9FD0646F9
:1009C00005E000BFFFF7E4FD801B6428F0D828682D
:1009D0008003F7D42078DFF8C08280074FF0000A48
:1009E0003ED5AC48001D016811F00C0F08D000681E
:1009F000C0F3810002280BD1D9F80000400207D4CF
:100A00002868800716D5E068012800D112E03CE193
:100A1000E068B8B10120C8F80000FFF7B9FD06464C
:100A200005E000BFFFF7B4FD801B0228C0D828688E
:100A30008007F7D52868216920F0F80040EAC10056
:100A400028600DE0C8F800A0FFF7A2FD064604E00C
:100A5000FFF79EFD801B02281FD828688007F7D467
:100A60002078000722D58B4E8C486169703671B1B1
:100A700001210160FFF78CFD074604E0FFF788FDC8
:100A8000C01B022809D830688007F7D50EE0C0F8EF
:100A900000A0FFF77DFD074605E082E0FFF778FD47
:100AA000C01B02287DD830688007F7D42078400723
:100AB00068D5DFF8E0B100270BF13C0BDBF8000054
:100AC000C0000BD4DBF8001041F08051CBF80010CF
:100AD000DBF80000012700F080500090704E306875
:100AE000C00510D4306840F480703060FFF750FDCE
:100AF000009005E0FFF74CFD0099401A022850D8FD
:100B00003068C005F6D5634EA0686C3601280FD05A
:100B10000528306810D020F001003060306820F0E7
:100B200004003060A068B8B1FFF732FD00900FE01C
:100B3000306840F00100F4E740F004003060F7E76F
:100B4000FFF726FD0099411A41F28830814268D8AA
:100B500030688007F4D50EE0FFF71AFD009007E03B
:100B6000FFF716FD0099411A41F28830814258D8AA
:100B700030688007F4D42FB1DBF8001021F08051E9
:100B8000CBF80010A069D8B34249091D0968C1F328
:100B9000810102294CD00228504607D0C8F86000D5
:100BA00000E03EE0FFF7F4FC04463DE04746C8F8AD
:100BB0006000FFF7EDFC064605E000BFFFF7E8FC2C
:100BC000801B02282DD828688001F7D4F4E907019A
:100BD0000843E168334A490802EB0141A26841EA4F
:100BE00082110843217C40EA0160217D40EA0171C5
:100BF000C9F8001001203866FFF7CAFC044606E079
:100C000045E000BFFFF7C4FC001B022809D8286894
:100C10008001F7D53BE000BFFFF7BAFC001B0228BC
:100C200002D90320BDE8F88F28688001F4D42EE0B3
:100C30000128F7D0D9F80000E26900F48001914260
:100C400023D1226A00F03F0191421ED147F6C071C4
:100C5000626A0140B1EB821F17D1A26A4FF0FF33E5
:100C600000F4403103EB5202B1EB024F0DD194F886
:100C70002C2000F07061B1EB026F06D194F83010B7
:100C800000F0E040B0EB017F01D00120CAE7002076
:100C9000C8E700000438024000004742800E474287
:100CA000007000400000FFFF7047704710B504005F
:100CB00003D094F83D0010B107E0012010BD0020E2
:100CC00084F83C00204600F01EF8022084F83D0025
:100CD000211D206800F0C4FA012084F8460084F841
:100CE0003E0084F83F0084F8400084F8410084F816
:100CF000420084F8430084F8440084F8450084F8F6
:100D00003D00002010BD704790F83D10012901D032
:100D100001207047022180F83D100168CA6842F046
:100D20000102CA6000681149884214D0B0F1804FB6
:100D300011D00F4988420ED00E4988420BD00E497F
:100D4000884208D00D49884205D00D49884202D01A
:100D50000C49884204D1816801F00701062903D0BB
:100D6000016841F00101016000207047000001406E
:100D70000004004000080040000C00400004014056
:100D80000040014000180040704770B504460068FC
:100D900001694FF00005C943890715D4C168C943EB
:100DA000890711D4E91E016101202077206880693C
:100DB0008007204602D0FFF7E7FF04E000F098F834
:100DC000204600F096F8257720680169C943490755
:100DD00017D4C168C943490713D46FF004010161F6
:100DE000022020772068806910F4407F204602D0DE
:100DF000FFF7CAFF04E000F07BF8204600F079F826
:100E0000257720680169C943090716D4C168C94319
:100E1000090712D46FF008010161042020772068CF
:100E2000C0698007204602D0FFF7AEFF04E000F063
:100E30005FF8204600F05DF8257720680169C94316
:100E4000C90617D4C168C943C90613D46FF010018D
:100E50000161082020772068C06910F4407F204697
:100E600002D0FFF791FF04E000F042F8204600F0C6
:100E700040F8257720680169C943C90708D1C168CE
:100E8000C943C90704D1891E0161204600F032F828
:100E900020680169C943090609D4C168C943090624
:100EA00005D46FF0800101612046FFF7FDFE206848
:100EB0000169C943490609D4C168C943490605D433
:100EC0006FF040010161204600F01BF820680169C5
:100ED000C94389060BD4C168C943890607D46FF09A
:100EE000200101612046BDE87040FFF7DEBE70BD05
:100EF000704770470068B0F1804F01D1FFF74EBBDB
:100F000070477047FEE7000010B50B4C01221146F8
:100F10002046FFF737FB012202212046FFF732FB74
:100F2000002202212046FFF72DFB20460022BDE8CB
:100F300010400121FFF726BB0008024010B5094C04
:100F4000012211462046FFF71DFB00220221204608
:100F5000FFF718FB20460122BDE810400221FFF7F1
:100F600011BB00000008024010B5064C01221146DA
:100F70002046FFF707FB20460022BDE81040012174
:100F8000FFF700BB00080240F0B587B014216846A7
:100F9000FFF7CEF91E480024016841F0040101600A
:100FA000016801F004010591016841F080010160D0
:100FB000016801F080010591016841F001010160C3
:100FC000016801F001010591016841F00201016031
:100FD0000068104F00F002000590002203213846FF
:100FE000FFF7D0FA012011250226CDE90005CDE951
:100FF000024669463846FFF7EBF90096CDE9015401
:10100000694638460394FFF7E3F907B0F0BD0000E6
:101010003038024000080240FEE7FEE770B50024C9
:10102000002104F1B00000F0ADF80021022000F032
:10103000A9F80021102000F0A5F8002501210020CA
:1010400000F0A0F86D1CEDB2802DF7D3641CE4B263
:10105000082CE5D370BD000070B586B01421684639
:10106000FFF766F945480025016841F0020101607B
:101070000068434E00F002004FF4406405902A4699
:1010800021463046FFF77EFA0121CDE90041CDE946
:10109000021569463046FFF79BF90A20FFF786F9EB
:1010A0000021AE2000F06EF80021022000F06AF866
:1010B0000021102000F066F80021402000F062F8C6
:1010C0000021B02000F05EF80021812000F05AF8E5
:1010D0000021FF2000F056F80021A12000F052F876
:1010E0000021A62000F04EF80021A82000F04AF8C8
:1010F00000213F2000F046F80021C82000F042F80F
:101100000021D32000F03EF80021084600F03AF814
:101110000021D52000F036F80021802000F032F8C0
:101120000021D82000F02EF80021052000F02AF838
:101130000021D92000F026F80021F12000F022F84B
:101140000021DA2000F01EF80021122000F01AF829
:101150000021DB2000F016F80021302000F012F80A
:1011600000218D2000F00EF80021142000F00AF874
:101170000021AF2000F006F806B070BD3038024004
:1011800000040240C0B209B100F00FB900F0F6B897
:1011900010B54FF0E020006900F0C0F9012803D03D
:1011A000BDE8104000F0A4B910BD000030B593B008
:1011B00034216846FFF7BCF814210DA8FFF7B8F8F2
:1011C0001E480025016841F080510160006800F070
:1011D000805012901A48016841F440410160006853
:1011E000022400F440401290092000904FF4803017
:1011F00001900120CDE90504800507900C2008909E
:101200006020CDE909040B9468460C94FFF78CFB31
:1012100008B172B6FEE70DA90F2081E831004FF446
:101220008050CDE9100503210DA8FFF781FA0028B1
:1012300001D072B6FEE713B030BD00004038024066
:10124000007000400248016841F47001016070477D
:1012500088ED00E00148FFF798BD00004C00002039
:10126000F0B50268254C264D264E274F274B4FF0F0
:10127000804CA04209D0604507D0A84205D0B042BA
:1012800003D0B84201D0984204D122F0700E4A68CF
:1012900042EA0E02A0421BD0604519D0A84217D0E6
:1012A000B04215D0B84213D0984211D0184DA84280
:1012B0000ED0184DA8420BD0174DA84208D0174D9C
:1012C000A84205D0164DA84202D0164DA84203D11F
:1012D00022F44075CA682A434D6922F080022A43ED
:1012E00002608A68C2620A688262A04201D09842A3
:1012F00001D10969016301214161F0BD0000014094
:101300000004004000080040000C004000040140C0
:1013100000400140004401400048014000180040E6
:10132000001C004000200040FEE7000070B5124E97
:101330000446002201213046FFF724F95FF0000542
:1013400004F08000802815D0002202213046FFF7EB
:1013500019F96006040E012211463046FFF712F912
:10136000002201213046FFF70DF96D1CEDB2082D6A
:10137000E6D370BD0122E8E70008024010B504463C
:10138000FFF7C2FD7820FFF7D1FFFFF7EDFD00204A
:10139000FFF7CCFFFFF7E8FD2046FFF7C7FFFFF799
:1013A000E3FDBDE81040FFF7C9BD10B50446FFF7E7
:1013B000ABFD7820FFF7BAFFFFF7D6FD4020FFF71F
:1013C000B5FFFFF7D1FD2046FFF7B0FFFFF7CCFDDB
:1013D000BDE81040FFF7B2BD0907090E002804DB85
:1013E00000F1E02080F80014704700F00F0000F1D9
:1013F000E02080F8141D704702E008C8121F08C1E1
:10140000002AFAD170477047002001E001C1121F85
:10141000002AFBD17047FFF7C9F8FFF7C7FEFFF7B7
:10142000B3FDFFF719FEFFF7F9FDFEE70648416B34
:10143000096829B1416BC968C96849688162704708
:101440004FF0FF31FAE7000010000020D0E9013230
:1014500001699A60D0E901235A604A68824201D149
:1014600082684A60002202610868401E08600868BD
:10147000704742684A6093688B60936859609160D6
:1014800008610168491C016070470000164810B5EA
:10149000016B11B10121C16110BD0021C161016960
:1014A000124A01E0B9B1491E01EB810352F8233021
:1014B000002BF7D001EB810302EB830202F1080459
:1014C00053685B685360A34201D15B685360DA687C
:1014D0000260016110BD502080F31188BFF34F8F6F
:1014E000BFF36F8FFEE70000100000209400002083
:1014F00010B5502080F31188BFF34F8FBFF36F8F6B
:1015000000F01AF818B104494FF08050086000202C
:1015100080F3118810BD000004ED00E0054841692A
:1015200019B1006B18B100207047012070470220EC
:1015300070470000100000202DE9F0412E4C0027DC
:10154000206B28B1A069401CA0613846BDE8F0813D
:10155000E668761CE66013D1606B006838B15020F5
:1015600080F31188BFF34F8FBFF36F8FFEE7606B7F
:10157000A16B6163A063206A401C2062FFF756FFE5
:10158000A06ADFF87880864209D3606B0068A0B15A
:10159000606BC068C5686868864211D2A062206826
:1015A000C06A00EB800158F82100012800D901270A
:1015B000E0690028C9D00127C7E74FF0FF30EDE709
:1015C000281DFFF743FFA86A18B105F11800FFF7BF
:1015D0003DFFE86A2169884200D9206100EB800163
:1015E00008EB8100291DFFF744FFE86A2168C96AFA
:1015F0008842CAD30127C8E71000002094000020C9
:1016000000000000000000000102030406070809B2
:10161000000000000102030438160008000000204A
:101620004C000000F8130008841600084C0000204D
:101630000C45000008140008010000001000000024
:10164000000000000024F400000000000000000082
:10165000000000000000000000000000000000008A
:10166000000000000000000000000000000000007A
:10167000000000000000000000000000000000006A
:041680000000000066
:04000005080001C529
:00000001FF
